:1000000012C02CC02BC02AC029C028C027C026C0BF
:1000100025C024C023C022C0F2C61EC7C3C61EC04E
:100020001DC01CC01BC011241FBECFE5D4E0DEBF25
:10003000CDBF11E0A0E6B0E0E6E6FDE102C005902C
:100040000D92AA36B107D9F711E0AAE6B1E001C0D6
:100050001D92A637B107E1F702D083CED1CFDF934F
:10006000CF93CDB7DEB763970FB6F894DEBF0FBE60
:10007000CDBF82E0898380E28A838FEF8B83CE01BC
:100080000196B8D082E0898380E18A83CE0101960F
:10009000B1D082E0898388E08A83CE010196AAD01C
:1000A00082E0898384E08A83CE010196A3D080E137
:1000B000FE013496DF01982F1D929A95E9F7198A6F
:1000C000188A1B8A1A8A1F861E8680E895E2A0E09D
:1000D000B0E08A879B87AC87BD8783E0898782E011
:1000E0008D831E821C8218861F82CE010496DCD36B
:1000F000EBE2F0E080818823DCF7ECE2F0E0808145
:1001000080936A0160E070E088EC92E4CBD2EBE28D
:10011000F0E080818823DCF7ECE2F0E080818093DE
:100120006B0160E070E088EC92E4BCD2EBE2F0E0BE
:1001300080818823DCF7ECE2F0E0808180936C0121
:1001400060E070E088EC92E4ADD2EBE2F0E0808118
:100150008823DCF7ECE2F0E0808180936D0160E0C1
:1001600070E088EC92E49ED280916A01813329F498
:1001700082E060E24FEFCBD008C080916A0180330B
:1001800021F482E060E240E0C2D080916B018133D3
:1001900029F482E060E14FEFBAD008C080916B0192
:1001A000803321F482E060E140E0B1D080916C01C5
:1001B000813329F482E068E04FEFA9D008C0809134
:1001C0006C01803321F482E068E040E0A0D08091AF
:1001D0006D01813329F482E064E04FEF98D088CF3D
:1001E00080916D01803309F083CF82E064E040E0CC
:1001F0008ED07ECFDF93CF9300D000D00F92CDB7BB
:10020000DEB79A83898389819A81009709F474C043
:10021000E981FA818081282F30E03D832C838C8115
:100220009D818230910549F12C813D81233031053A
:1002300009F440C08C819D818130910509F057C03F
:10024000E981FA8182818F3F59F4A7E3B0E0E7E3C7
:10025000F0E09081E981FA818181892B8C934AC0F9
:10026000A7E3B0E0E7E3F0E08081982FE981FA812D
:100270008181809589238C933DC0E981FA818281B7
:100280008F3F59F4A4E3B0E0E4E3F0E09081E9812A
:10029000FA818181892B8C932DC0A4E3B0E0E4E343
:1002A000F0E08081982FE981FA818181809589230E
:1002B0008C9320C0E981FA8182818F3F59F4A1E3B8
:1002C000B0E0E1E3F0E09081E981FA818181892B5E
:1002D0008C9310C0A1E3B0E0E1E3F0E08081982FBF
:1002E000E981FA818181809589238C9303C091E013
:1002F0009B8304C01B8202C021E02B838B810F9063
:100300000F900F900F900F90CF91DF910895DF9392
:10031000CF9300D000D000D0CDB7DEB789836A83F9
:100320004B838981282F30E03E832D838D819E81F0
:100330008230910511F12D813E8123303105A1F1EB
:100340008D819E818130910509F045C08B81882384
:1003500049F0A8E3B0E0E8E3F0E090818A81892BDE
:100360008C933CC0A8E3B0E0E8E3F0E08081982FF4
:100370008A81809589238C9331C08B81882349F0B1
:10038000A5E3B0E0E5E3F0E090818A81892B8C93CE
:1003900025C0A5E3B0E0E5E3F0E08081982F8A81F5
:1003A000809589238C931AC08B81882349F0A2E31E
:1003B000B0E0E2E3F0E090818A81892B8C930EC05B
:1003C000A2E3B0E0E2E3F0E08081982F8A8180959B
:1003D00089238C9303C091E09C8301C01C828C8193
:1003E00026960FB6F894DEBF0FBECDBFCF91DF913A
:1003F0000895DF93CF93CDB7DEB727970FB6F89464
:10040000DEBF0FBECDBF89836A835C834B83898146
:10041000282F30E03F832E838E819F81823091058B
:10042000D1F02E813F812330310529F18E819F81CA
:100430008130910581F5E6E3F0E090818A8189239E
:10044000882329F0EB81FC818FEF808327C0EB812B
:10045000FC81108223C0E3E3F0E090818A8189234C
:10046000882329F0EB81FC818FEF808317C0EB811B
:10047000FC81108213C0E0E3F0E090818A8189233F
:10048000882329F0EB81FC818FEF808307C0EB810B
:10049000FC81108203C091E09D8301C01D828D818B
:1004A00027960FB6F894DEBF0FBECDBFCF91DF9178
:1004B0000895DF93CF9300D000D00F92CDB7DEB771
:1004C00089836A838981282F30E03D832C838C8146
:1004D0009D818230910599F02C813D812330310539
:1004E000B9F08C819D8181309105D9F4A8E3B0E009
:1004F000E8E3F0E090818A8189278C9315C0A5E319
:10050000B0E0E5E3F0E090818A8189278C930CC00C
:10051000A2E3B0E0E2E3F0E090818A8189278C9346
:1005200003C091E09B8301C01B828B810F900F90D1
:100530000F900F900F90CF91DF910895DF93CF939D
:1005400000D000D00F92CDB7DEB789836A834B838A
:100550008981282F30E03D832C838C819D818230DE
:10056000910511F12C813D8123303105A1F18C8160
:100570009D818130910509F044C08B81882349F425
:10058000A8E3B0E0E8E3F0E090818A81892B8C93C6
:1005900038C0A8E3B0E0E8E3F0E08081982F8A81DA
:1005A000809589238C932DC08B81882349F4A5E302
:1005B000B0E0E5E3F0E090818A81892B8C9321C043
:1005C000A5E3B0E0E5E3F0E08081982F8A81809593
:1005D00089238C9316C08B81882349F4A2E3B0E071
:1005E000E2E3F0E090818A81892B8C930AC0A2E338
:1005F000B0E0E2E3F0E08081982F8A818095892342
:100600008C930F900F900F900F900F90CF91DF91E0
:100610000895DF93CF9300D000D00F92CDB7DEB70F
:100620009A83898304C000000000000000008981D3
:100630009A819D838C831B828C819D81009711F010
:1006400091E09B838C819D8101979A8389838B8123
:10065000882349F70F900F900F900F900F90CF9134
:10066000DF910895DF93CF9300D00F92CDB7DEB71F
:10067000898303C000000000000089818A838A8189
:100680008B838B81882311F081E08B839B818A810E
:1006900081508983992371F70F900F900F90CF911C
:1006A000DF910895DF93CF93CDB7DEB72A970FB6CA
:1006B000F894DEBF0FBECDBF6F83788789879A8796
:1006C0006F81788589859A8520E030E040E251E4A9
:1006D000A9D6DC01CB018F839887A987BA876F8160
:1006E000788589859A8520E030E84BE355E4A5D5E7
:1006F000DC01CB01BC01CD01DCD3DC01CB018B8360
:100700009C83AD83BE836B817C818D819E8103D868
:10071000DC01CB01BC01CD0120E030E040E85FE32B
:100720007ED788232CF481E090E09A83898330C0BF
:100730008B819C81AD81BE81803020E0920721E0D9
:10074000A20720E0B20700F16F81788589859A853C
:1007500020E030E040E251E470D5DC01CB01BC0187
:10076000CD01A7D3DC01CB019A83898308C08CE239
:1007700091E04FDF89819A8101979A8389838981EA
:100780009A810097A1F707C08B819C819A83898306
:1007900089819A813EDF2A960FB6F894DEBF0FBE9C
:1007A000CDBFCF91DF910895DF93CF93CDB7DEB763
:1007B0002F970FB6F894DEBF0FBECDBF6C877D8735
:1007C0008E879F871F826C857D858E859F8520E023
:1007D00030E040E850E431D5DC01CB0188879987CF
:1007E000AA87BB876C857D858E859F8520E030E05C
:1007F00040E450E422D5DC01CB018B839C83AD83A4
:10080000BE83688579858A859B8520E030E040E855
:100810005FE305D788231CF481E08F833AC06B81A6
:100820007C818D819E8120E03FEF4FE757E4A1D688
:1008300018167CF46C857D858E859F8520E030E0E0
:100840004AE754E4EFD5DC01CB01BC01CD012ADF3E
:1008500020C0688579858A859B8520E030E04FE758
:1008600053E487D618166CF46B817C818D819E8150
:1008700020D3DC01CB019A83898389819A81C9DEE7
:100880000AC0688579858A859B8513D3DC01CB01F5
:100890008F838F81E7DE2F960FB6F894DEBF0FBEF1
:1008A000CDBFCF91DF910895DF93CF93CDB7DEB762
:1008B00027970FB6F894DEBF0FBECDBF9C838B8306
:1008C0008B819C81009709F4ECC1EB81FC818681CE
:1008D0009781A085B185880F991FAA1FBB1F880F1C
:1008E000991FAA1FBB1F880F991FAA1FBB1F880F24
:1008F000991FAA1FBB1F9C01AD0180E09BE1A7EBE4
:10090000B0E0BC01CD0171D9DA01C9010197A1099B
:10091000B109BC01CD01FFD6DC01CB01BC01CD0189
:10092000BDD9DC01CB019A838983E0E4F0E08981C1
:100930009A81892F99278083E9E2F0E08981808379
:10094000EB81FC818581882391F480916000897F0F
:1009500080936000E0E4F0E0809160008083AAE290
:10096000B0E0EAE2F0E080818B7F8C9369C0EB819C
:10097000FC8185818130B9F4809160008B7F809308
:10098000600080916000826080936000E0E4F0E0AD
:10099000809160008083AAE2B0E0EAE2F0E080812A
:1009A0008B7F8C934DC0EB81FC8185818230B9F4C3
:1009B00080916000846080936000809160008D7FF2
:1009C00080936000E0E4F0E0809160008083AAE220
:1009D000B0E0EAE2F0E080818B7F8C9331C0EB8164
:1009E000FC818581833091F48091600086608093E2
:1009F0006000E0E4F0E0809160008083AAE2B0E073
:100A0000EAE2F0E080818B7F8C931AC0EB81FC815D
:100A10008581873091F480916000846080936000CC
:100A2000E0E4F0E0809160008083AAE2B0E0EAE2D6
:100A3000F0E0808184608C9303C021E02F8332C179
:100A4000EB81FC818481882359F4809160008F7C44
:100A500080936000E0E4F0E080916000808328C033
:100A6000EB81FC818481823081F4809160008F7EF3
:100A70008093600080916000806280936000E0E479
:100A8000F0E080916000808313C0EB81FC81848161
:100A9000833059F480916000806380936000E0E4CB
:100AA000F0E080916000808303C031E03F83FAC0B2
:100AB000EB81FC818381882359F480916000877FDA
:100AC00080936000E0E4F0E080916000808313C0D8
:100AD000EB81FC818381813059F4809160008860D2
:100AE00080936000E0E4F0E080916000808303C0C8
:100AF00081E08F83D7C0EB81FC818281882341F420
:100B0000ABE2B0E0EBE2F0E080818D7F8C9310C02F
:100B1000EB81FC818281813041F4ABE2B0E0EBE219
:100B2000F0E0808182608C9303C091E09F83BAC023
:100B3000EB81FC818081282F30E03E832D838D81E5
:100B40009E81009739F02D813E812130310509F4D5
:100B500040C077C0EB81FC818181882379F4AAE2CF
:100B6000B0E0EAE2F0E080818F728C93AAE2B0E01C
:100B7000EAE2F0E0808188608C9366C0EB81FC81C2
:100B80008181813079F4AAE2B0E0EAE2F0E080818C
:100B900087738C93AAE2B0E0EAE2F0E080818061A2
:100BA0008C9352C0EB81FC818181823079F4AAE27E
:100BB000B0E0EAE2F0E080818F738C93AAE2B0E0CB
:100BC000EAE2F0E0808188618C933EC031E03F83AF
:100BD00069C0EB81FC818181882379F4AAE2B0E0CD
:100BE000EAE2F0E080818F7E8C93AAE2B0E0EAE254
:100BF000F0E08081886C8C9327C0EB81FC8181813F
:100C0000813079F4AAE2B0E0EAE2F0E08081877F07
:100C10008C93AAE2B0E0EAE2F0E08081806D8C93F0
:100C200013C0EB81FC818181823041F4AAE2B0E003
:100C3000EAE2F0E08081886D8C9306C081E08F83CA
:100C400031C091E09F832EC0EB81FC81828593852A
:100C5000009741F0EB81FC8182859385909371012F
:100C600080937001EB81FC8184859585009741F02C
:100C7000EB81FC818485958590937301809372014B
:100C8000EB81FC8186859785009741F0EB81FC81A3
:100C900086859785909375018093740181E0809398
:100CA0006F011F828F8127960FB6F894DEBF0FBEAB
:100CB000CDBFCF91DF910895DF93CF930F92CDB742
:100CC000DEB780916F018130C1F4EBE2F0E0108279
:100CD000EAE2F0E0108280E880936000E0E4F0E077
:100CE000809160008083E9E2F0E01082E0E4F0E0CF
:100CF000108210926F01198202C081E0898389817C
:100D00000F90CF91DF910895DF93CF9300D0CDB7AF
:100D1000DEB7898380916F01813031F4ECE2F0E03D
:100D2000898180831A8202C081E08A838A810F9040
:100D30000F90CF91DF910895DF93CF9300D00F9262
:100D4000CDB7DEB79A83898380916F01813069F4D2
:100D5000EBE2F0E080818823DCF7ECE2F0E08081D8
:100D6000E981FA8180831B8202C081E08B838B81C1
:100D70000F900F900F90CF91DF910895DF93CF9355
:100D80000F92CDB7DEB71982EBE2F0E080818823C5
:100D90001CF481E0898301C0198289810F90CF9171
:100DA000DF9108951F920F920FB60F9211242F9387
:100DB0003F934F935F936F937F938F939F93AF93E3
:100DC000BF93EF93FF93DF93CF93CDB7DEB7E0915F
:100DD0007001F09171010995CF91DF91FF91EF9131
:100DE000BF91AF919F918F917F916F915F914F9143
:100DF0003F912F910F900FBE0F901F9018951F924B
:100E00000F920FB60F9211242F933F934F935F933E
:100E10006F937F938F939F93AF93BF93EF93FF93C2
:100E2000DF93CF93CDB7DEB7E0917201F0917301FC
:100E30000995CF91DF91FF91EF91BF91AF919F9174
:100E40008F917F916F915F914F913F912F910F9073
:100E50000FBE0F901F9018951F920F920FB60F9212
:100E600011242F933F934F935F936F937F938F93AF
:100E70009F93AF93BF93EF93FF93DF93CF93CDB740
:100E8000DEB7E0917401F09175010995CF91DF9182
:100E9000FF91EF91BF91AF919F918F917F916F9152
:100EA0005F914F913F912F910F900FBE0F901F9028
:100EB0001895EF92FF920F931F937B018C0120E016
:100EC00030E040E05FE480D388237CF0C801B701C4
:100ED00020E030E040E05FE45ED1CCD39B01AC0188
:100EE000205030404040504805C0C801B701C2D32F
:100EF0009B01AC01B901CA011F910F91FF90EF90C6
:100F00000895A0E0B0E0E6E8F7E091C6DC012B012F
:100F1000FA019C91923008F439C1EB01888182304A
:100F200008F433C1943069F4843009F02FC111966C
:100F30009C9111978981981709F428C1A1E6B0E026
:100F400025C1843009F421C18230A9F4923009F01E
:100F50001DC19A01AD0188E0EA010990AE01E901E5
:100F600009929E018150C1F7E201898111969C91FD
:100F70008923818308C1923009F407C112962D900C
:100F80003C901397EB018A819B811496AD90BD90A4
:100F9000CD90DC901797EC80FD800E811F81910130
:100FA000281B390BB90137FF04C066277727621B5E
:100FB000730B603271050CF061C0121613066CF5EC
:100FC00037014801062E04C096948794779467945D
:100FD0000A94D2F721E030E040E050E004C0220F54
:100FE000331F441F551F6A95D2F7215030404040AF
:100FF00050402E213F214023512321153105410529
:10100000510521F021E030E040E050E079018A0113
:10101000E628F728082919293CC0232BD1F1260EF0
:10102000371E35014601062E04C0969487947794A6
:1010300067940A94D2F721E030E040E050E004C029
:10104000220F331F441F551F6A95D2F7215030409D
:10105000404050402A213B214C215D212115310582
:101060004105510521F021E030E040E050E0590118
:101070006A01A628B728C828D9280BC0821593056D
:101080002CF01C01AA24BB24650103C0EE24FF241C
:10109000870111969C91D20111968C91981709F4B1
:1010A00045C0992339F0A80197012A193B094C0939
:1010B0005D0906C0A60195012E193F09400B510B91
:1010C00057FD08C0118233822282248335834683F0
:1010D00057831DC081E0818333822282882799272C
:1010E000DC01821B930BA40BB50B84839583A68331
:1010F000B7830DC0220F331F441F551F2483358330
:1011000046835783828193810197938382832481CD
:10111000358146815781DA01C9010197A109B109D9
:101120008F5F9F4FAF4FBF4328F30BC09183338234
:101130002282EA0CFB1C0C1D1D1DE482F582068335
:10114000178383E08083248135814681578157FF4F
:101150001AC0C901AA2797FDA095BA2F8170907077
:10116000A070B0705695479537952795822B932B95
:10117000A42BB52B84839583A683B7838281938127
:10118000019693838283DF0101C0D201CD01CDB7E7
:10119000DEB7E2E168C5A0E2B0E0E0EDF8E053C5FB
:1011A00069837A838B839C832D833E834F83588707
:1011B000E9E0EE2EF12CEC0EFD1ECE010196B701FA
:1011C00043D48E010F5E1F4FCE010596B8013CD46B
:1011D0008A8991E089278A8BC701B801AE01475EF1
:1011E0005F4F8FDE5CD3A096E6E049C5A0E2B0E099
:1011F000EBEFF8E028C569837A838B839C832D838A
:101200003E834F835887F9E0EF2EF12CEC0EFD1E44
:10121000CE010196B70118D48E010F5E1F4FCE018B
:101220000596B80111D4C701B801AE01475E5F4F02
:1012300068DE35D3A096E6E022C5A0E2B0E0E2E2A7
:10124000F9E0F5C469837A838B839C832D833E8385
:101250004F835887CE010196BE01675F7F4FF4D35D
:10126000CE010596BE016F5E7F4FEED39985923019
:1012700088F089898230C8F0943019F4823051F4B2
:1012800004C0843029F4923081F481E690E0C6C035
:10129000923049F420E09A858A89981321E02A87C0
:1012A000CE010996BBC0823049F420E09A858A8934
:1012B000981321E02A8BCE014196B0C02D843E8444
:1012C0004F8458886D887E888F88988CEE24FF2400
:1012D0008701AA24BB24650140E050E060E070E093
:1012E000E0E0F0E0C10181709070892BE9F0E60C3C
:1012F000F71C081D191D9A01AB012A0D3B1D4C1D41
:101300005D1D80E090E0A0E0B0E0E614F704080581
:10131000190520F481E090E0A0E0B0E0BA01A90155
:10132000480F591F6A1F7B1FAA0CBB1CCC1CDD1C5D
:1013300097FE08C081E090E0A0E0B0E0A82AB92ABA
:10134000CA2ADB2A3196E032F10549F0660C771C97
:10135000881C991C5694479437942794C3CFFA85D8
:10136000EA892B893C898B859C85280F391F2E5F44
:101370003F4F17C0CA0181709070892B61F016959C
:101380000795F794E79480E090E0A0E0B0E8E82AC1
:10139000F92A0A2B1B2B76956795579547952F5F52
:1013A0003F4F77FDE7CF0CC0440F551F661F771FD7
:1013B00017FD4160EE0CFF1C001F111F2150304033
:1013C000403090E0590790E0690790E4790760F3B6
:1013D0002B8F3C8FDB01CA018F779070A070B070AB
:1013E00080349105A105B10561F447FD0AC0E114FF
:1013F000F1040105110529F0405C5F4F6F4F7F4FED
:1014000040781A8EFE1711F081E08A8F4D8F5E8F23
:101410006F8F78A383E0898FCE01499640D2A09642
:10142000E2E121C4A8E1B0E0E7E1FAE008C46983A1
:101430007A838B839C832D833E834F835887B9E0C7
:10144000EB2EF12CEC0EFD1ECE010196B701FCD265
:101450008E010F5E1F4FCE010596B801F5D229858A
:10146000223008F47EC03989323010F4B8017CC0D3
:101470008A859A8989278A87243011F0223031F4AD
:10148000231709F06EC061E670E06EC0343039F4A5
:101490001D861E861F86188A1C861B8604C0323055
:1014A00021F484E08987B7015FC02B853C858B8957
:1014B0009C89281B390B3C872B87ED84FE840F8584
:1014C0001889AD88BE88CF88D88CEA14FB040C0537
:1014D0001D0540F4EE0CFF1C001F111F2150304071
:1014E0003C872B8720E030E040E050E080E090E057
:1014F000A0E0B0E460E070E0EA14FB040C051D0518
:1015000040F0282B392B4A2B5B2BEA18FB080C09DF
:101510001D09B695A79597958795EE0CFF1C001FA2
:10152000111F6F5F7F4F6F31710531F7DA01C9010C
:101530008F779070A070B07080349105A105B105CF
:1015400061F427FD0AC0E114F1040105110529F039
:10155000205C3F4F4F4F5F4F20782D873E874F874E
:10156000588BBE01675F7F4FCB0199D16896EAE047
:1015700082C3A8E1B0E0EEEBFAE065C369837A8349
:101580008B839C832D833E834F83588789E0E82E8D
:10159000F12CEC0EFD1ECE010196B70155D28E0145
:1015A0000F5E1F4FCE010596B8014ED2898582305D
:1015B00038F08989823020F0C701B801BDD201C05E
:1015C0008FEF6896E6E05BC3A8E1B0E0E9EEFAE0F1
:1015D0003AC369837A838B839C832D833E834F83B5
:1015E000588789E0E82EF12CEC0EFD1ECE01019605
:1015F000B7012AD28E010F5E1F4FCE010596B801AA
:1016000023D28985823038F08989823020F0C70161
:10161000B80192D201C08FEF6896E6E030C3A8E12E
:10162000B0E0E4E1FBE00FC369837A838B839C83A2
:101630002D833E834F83588789E0E82EF12CEC0EF2
:10164000FD1ECE010196B701FFD18E010F5E1F4F27
:10165000CE010596B801F8D18985823038F08989A4
:10166000823020F0C701B80167D201C081E06896DE
:10167000E6E005C3ACE0B0E0EFE3FBE0E8C269837D
:101680007A838B839C83CE010196BE016B5F7F4F73
:10169000DBD18D81823061F1823050F1843021F4D0
:1016A0008E81882351F12EC02F81388537FD20C0CF
:1016B0006E812F3131051CF06623F9F023C08EE1D5
:1016C00090E0821B930B29853A854B855C8504C08D
:1016D00056954795379527958A95D2F76623B1F0A9
:1016E00050954095309521953F4F4F4F5F4F0EC01D
:1016F00020E030E040E050E009C02FEF3FEF4FEF37
:101700005FE704C020E030E040E050E8B901CA01E2
:101710002C96E2E0B8C2A8E0B0E0E0E9FBE08FC2BE
:101720007B018C01611571058105910519F482E039
:1017300089835FC083E089838EE1C82ED12CDC824F
:10174000CB82ED82FE820F831887C801B70158D083
:10175000FC013197F7FF3BC0222733272E1B3F0B9D
:1017600057016801022E04C0D694C794B794A79479
:101770000A94D2F740E050E060E070E081E090E051
:10178000A0E0B0E004C0880F991FAA1FBB1F2A95D4
:10179000D2F70197A109B1098E219F21A023B1237E
:1017A0000097A105B10521F041E050E060E070E054
:1017B0004A295B296C297D294D835E836F83788755
:1017C0008EE190E08E1B9F0B9C838B8312C0309721
:1017D00081F00E2E04C0EE0CFF1C001F111F0A9496
:1017E000D2F7ED82FE820F831887CE1ADF0ADC82E1
:1017F000CB821A82CE01019652D02896EAE03BC2F3
:10180000EF92FF920F931F937B018C0180E0E8160B
:1018100080E0F80681E0080780E0180788F48FEF81
:10182000E816F1040105110531F028F088E090E098
:10183000A0E0B0E017C080E090E0A0E0B0E012C00F
:1018400080E0E81680E0F80680E0080781E01807ED
:1018500028F088E190E0A0E0B0E004C080E190E0F2
:10186000A0E0B0E020E230E040E050E0281B390B7F
:101870004A0B5B0B04C016950795F794E7948A957D
:10188000D2F7F701E759FF4F8081281B3109410941
:101890005109C9011F910F91FF90EF900895DF92B8
:1018A000EF92FF920F931F93FC01E480F580068175
:1018B0001781D1808081823048F480E090E0A0E1FF
:1018C000B0E0E82AF92A0A2B1B2BA5C0843009F4C2
:1018D0009FC0823021F4EE24FF24870105C0E1146B
:1018E000F1040105110519F4E0E0F0E096C0628111
:1018F00073819FEF623879070CF05BC022E83FEFFD
:10190000261B370B2A3131052CF020E030E040E077
:1019100050E02AC0B801A701022E04C07695679551
:10192000579547950A94D2F781E090E0A0E0B0E0A7
:1019300004C0880F991FAA1FBB1F2A95D2F70197D1
:10194000A109B1098E219F21A023B1230097A105F0
:10195000B10521F081E090E0A0E0B0E09A01AB0198
:10196000282B392B4A2B5B2BDA01C9018F7790701A
:10197000A070B07080349105A105B10539F427FF3E
:1019800009C0205C3F4F4F4F5F4F04C0215C3F4F69
:101990004F4F5F4FE0E0F0E02030A0E03A07A0E0DA
:1019A0004A07A0E45A0710F0E1E0F0E079018A016B
:1019B00027C06038710564F5FB01E158FF4FD8017D
:1019C000C7018F779070A070B07080349105A10529
:1019D000B10539F4E7FE0DC080E490E0A0E0B0E08E
:1019E00004C08FE390E0A0E0B0E0E80EF91E0A1F0B
:1019F0001B1F17FF05C016950795F794E7943196BE
:101A000087E016950795F794E7948A95D1F705C076
:101A1000EE24FF248701EFEFF0E06E2F6795662735
:101A20006795902F9F77D794DD24D7948E2F869536
:101A3000492F462B582F5D29B701CA011F910F91DD
:101A4000FF90EF90DF900895FC01DB014081518110
:101A50002281622F6F7770E0221F2227221F93813D
:101A6000892F880F822B282F30E0991F9927991FE3
:101A700011969C93119721153105A9F54115510532
:101A80006105710511F482E037C082E89FEF13967B
:101A90009C938E9312979A01AB0167E0220F331F3C
:101AA000441F551F6A95D1F783E08C930DC0220F18
:101AB000331F441F551F12968D919C9113970197C8
:101AC00013969C938E931297203080E0380780E025
:101AD000480780E4580758F314962D933D934D938F
:101AE0005C93179708952F3F310579F441155105FF
:101AF0006105710519F484E08C93089564FF03C0B7
:101B000081E08C9312C01C9210C02F573040139666
:101B10003C932E93129783E08C9387E0440F551FDC
:101B2000661F771F8A95D1F7706414964D935D9365
:101B30006D937C93179708951F93DC01FB019C9193
:101B4000923008F447C08081823008F443C094305A
:101B500051F411961C91843099F58181682F70E0C1
:101B6000611B71093FC0843021F0923031F4823022
:101B7000B9F18181882389F12DC011961C911197AB
:101B80008230F1F081811817D9F412962D913C9191
:101B90001397828193818217930794F0281739074E
:101BA000BCF014968D919D910D90BC91A02D248137
:101BB000358146815781281739074A075B0718F492
:101BC000112341F00AC082179307A407B50740F418
:101BD000112319F061E070E005C06FEF7FEF02C0E4
:101BE00060E070E0CB011F910895A1E21A2EAA1BBC
:101BF000BB1BFD010DC0AA1FBB1FEE1FFF1FA217BD
:101C0000B307E407F50720F0A21BB30BE40BF50BB9
:101C1000661F771F881F991F1A9469F76095709542
:101C2000809590959B01AC01BD01CF0108952F9245
:101C30003F924F925F926F927F928F929F92AF925C
:101C4000BF92CF92DF92EF92FF920F931F93CF93A9
:101C5000DF93CDB7DEB7CA1BDB0B0FB6F894DEBF40
:101C60000FBECDBF09942A88398848885F846E8466
:101C70007D848C849B84AA84B984C884DF80EE80B0
:101C8000FD800C811B81AA81B981CE0FD11D0FB6B9
:101C9000F894DEBF0FBECDBFED01089541D0A8F18D
:101CA0009E57A8F1985160F039F1983070F5092EDF
:101CB0009927660F771F881F991F0A94D1F71CC0B8
:101CC000BB27993F4CF4B111B1E0B62B672F782FA9
:101CD0008827985FB1F708C0869577956795B7957F
:101CE00008F4B1609395C1F7BB0F30F411F460FFB5
:101CF00003C06F5F7F4F8F4F3EF490958095709536
:101D000061957F4F8F4F9F4F0895689424C022C0E4
:101D100057FD9058440F551F59F05F3F71F047959C
:101D2000880F97FB991F61F09F3F79F08795089581
:101D3000121613061406551FF2CF4695F1DF08C0A0
:101D4000161617061806991FF1CF869571056105BD
:101D500008940895E894BB2766277727CB0197F965
:061D60000895F894FFCF86
:101D660080000000000000000000010202030303DF
:101D76000304040404040404040505050505050517
:101D860005050505050505050506060606060606F6
:101D960006060606060606060606060606060606DD
:101DA60006060606060606060607070707070707C6
:101DB60007070707070707070707070707070707AD
:101DC600070707070707070707070707070707079D
:101DD600070707070707070707070707070707078D
:101DE6000707070707070707070808080808080876
:101DF600080808080808080808080808080808085D
:101E0600080808080808080808080808080808084C
:101E1600080808080808080808080808080808083C
:101E2600080808080808080808080808080808082C
:101E3600080808080808080808080808080808081C
:101E4600080808080808080808080808080808080C
:101E560008080808080808080808080808080808FC
:0A1E6600080808080808080808002A
:00000001FF
