:100000000C942A000C9447000C9447000C94470071
:100010000C9447000C9447000C9447000C94110872
:100020000C9447000C9447000C9447000C94470034
:100030000C9447000C9447000C9447000C94470024
:100040000C9447000C9447000C9447000C94470014
:100050000C94470011241FBECFE5D8E0DEBFCDBF12
:1000600010E0A0E6B0E0E6E9F0E502C005900D92F0
:10007000A637B107D9F716E0A6E7B0E001C01D9298
:10008000AF3BB107E1F70E94E2270C9449280C949A
:100090000000DF93CF9300D0CDB7DEB78BE090E0C8
:1000A0000E948E039A83898389819A81009749F0FF
:1000B000E981FA811182108289819A8102960E94D7
:1000C0000A0489819A810F900F90CF91DF91089552
:1000D000DF93CF93CDB7DEB760970FB6F894DEBF4E
:1000E0000FBECDBF9A8789877C876B875E874D87D8
:1000F000388B2F8789859A859C838B8319820E94F0
:10010000B81AEB81FC818081918198878F838985E2
:100110009A852B853C85B9010E943F022F81388545
:100120008B859C85282B392B8D859E85282339230B
:100130008D859E8528173907C9F42F8138858B85D1
:100140009C85822B932B9E838D83EB81FC81208168
:1001500031818D859E858095909582239323EB81B7
:10016000FC8191838083188A1F861EC08F859889A1
:10017000009791F08B819C81BC016E5F7F4F8D85D4
:100180009E859C0135604F855889CB01B9010E943D
:10019000F81C1E821D8208C0EB81FC818081918148
:1001A0009E838D8381E089830E94C41A8A838F8510
:1001B0009889009709F43AC08A81882311F40E9433
:1001C000FF060E942B1F9E838D838D819E818070F0
:1001D0009270009731F50FB6F8940F92EB81FC8185
:1001E000808191819E838D832D813E818D859E8529
:1001F000282339238D859E852817390771F4EB81D3
:10020000FC81208131818D859E858095909582230A
:100210009323EB81FC81918380830F900FBE81E05B
:1002200089838D819E8190709E838D838D819E8137
:1002300060960FB6F894DEBF0FBECDBFCF91DF91B1
:1002400008950F931F93DF93CF93CDB7DEB76397D6
:100250000FB6F894DEBF0FBECDBF9D878C877F871A
:100260006E87488B298B1B8B0A8B8C859D859B8782
:100270008A871F821E821B820E94B81AEA85FB852C
:10028000808191819A83898389819A812E853F8596
:10029000B90149890E945C038D838D818823C1F057
:1002A00089819A81998788871B8A1A8A88898823F5
:1002B000E9F1EA85FB85208131818E859F858095D6
:1002C000909582239323EA85FB85918380832EC0BA
:1002D0008A899B89009739F489819A8199878887CF
:1002E00081E08B8323C08889882329F08E819F81B8
:1002F00091609F838E838989882329F08E819F81D5
:1003000094609F838E838A859B85BC016E5F7F4F3F
:100310002E853F858E819F81282B392B4A895B89C9
:10032000CB01B9010E94F81C198618860E94C41AD4
:100330008C838A899B89009709F43CC08C8188232F
:1003400011F40E94FF060E942B1F998788878885D9
:10035000998580709270009741F50FB6F8940F92CE
:10036000EA85FB8580819181998788878885998531
:100370002E853F85B90149890E945C03882389F055
:100380008889882371F0EA85FB85208131818E85FB
:100390009F858095909582239323EA85FB859183A1
:1003A000808381E08B830F900FBE88859985907044
:1003B000998788878885998563960FB6F894DEBFFC
:1003C0000FBECDBFCF91DF911F910F910895DF93A5
:1003D000CF93CDB7DEB728970FB6F894DEBF0FBE28
:1003E000CDBF9E838D8378876F838D819E819C8313
:1003F0008B830FB6F8940F92EB81FC818081918101
:100400009A838983EB81FC81208131818F8198855A
:100410008095909582239323EB81FC819183808347
:100420000F900FBE89819A8128960FB6F894DEBF8F
:100430000FBECDBFCF91DF910895DF93CF93CDB79E
:10044000DEB727970FB6F894DEBF0FBECDBF9F83F0
:100450008E838E819F819C838B831D82EB81FC81A7
:10046000808191819A83898389819A8127960FB6A9
:10047000F894DEBF0FBECDBFCF91DF910895DF931B
:10048000CF93CDB7DEB765970FB6F894DEBF0FBE3A
:10049000CDBF9B8B8A8B7D8B6C8B198618868A8946
:1004A0009B899B838A8319828A819B8102969B8781
:1004B0008A878A859B8503969D878C870E94B81AB8
:1004C000EA85FB8585819681998B888BEA81FB8102
:1004D000208131818C899D89822B932BEA81FB813C
:1004E0009183808359C0E889F989828193819F87AC
:1004F0008E87E889F989808191819F838E83198213
:100500008E819F8180709D838C838E819F8190706E
:100510009F838E838C819D8180709470009769F495
:10052000EA81FB81208131818E819F818223932307
:10053000009791F081E089830FC0EA81FB812081DF
:1005400031818E819F81282339238E819F812817B5
:10055000390711F481E0898389818823C9F08C816E
:100560009D8180709170009741F0888599852E81DA
:100570003F81822B932B99878887EA81FB81808139
:1005800091819C01326088899989B9010E94931DEB
:100590008E859F85998B888B288939898C859D8547
:1005A0002817390709F09FCFEA81FB81208131812B
:1005B000888599858095909582239323EA81FB8194
:1005C000918380830E94C41AEA81FB81808191819A
:1005D00065960FB6F894DEBF0FBECDBFCF91DF9109
:1005E0000895DF93CF9300D000D000D0CDB7DEB711
:1005F0009E838D838D819E819C838B838B819C8147
:1006000002969A8389830E94B81A08C0E981FA8108
:100610008581968160E072E00E94931DE981FA81F4
:100620008081882399F78B819C810E94E4030E943A
:10063000C41A26960FB6F894DEBF0FBECDBFCF9179
:10064000DF910895DF93CF9300D000D000D0CDB7D5
:10065000DEB79A8389834B835C836D837E83898134
:100660009A812B813C81B9010E943F0226960FB6E8
:10067000F894DEBF0FBECDBFCF91DF910895DF9319
:10068000CF9300D000D000D0CDB7DEB79A83898356
:100690004B835C836D837E8389819A812B813C812E
:1006A000B9010E94E70126960FB6F894DEBF0FBE8F
:1006B000CDBFCF91DF910895DF93CF9300D000D0CD
:1006C00000D0CDB7DEB79B838A837D836C834E8356
:1006D00019828E81882359F48A819B812C813D81E6
:1006E00082239323009781F081E089830DC02A81C2
:1006F0003B818C819D81282339238C819D81281702
:10070000390711F481E08983898126960FB6F89420
:10071000DEBF0FBECDBFCF91DF910895DF93CF93A2
:1007200000D000D0CDB7DEB79C838B831A821982AC
:100730000E94B81A8091780090917900009731F466
:100740008BE790E090937900809378008091760019
:10075000909177002B813C81820F931F25E08B3D88
:10076000920738F520917600309177008B819C813B
:10077000280F391F80917600909177008217930798
:10078000C0F42091780030917900809176009091AA
:100790007700820F931F9A8389832091760030918E
:1007A00077008B819C81820F931F909377008093B9
:1007B00076000E94C41A89819A810F900F900F9041
:1007C0000F90CF91DF910895DF93CF9300D0CDB7F5
:1007D000DEB79A8389830F900F90CF91DF910895B0
:1007E000DF93CF93CDB7DEB71092770010927600EB
:1007F000CF91DF910895DF93CF93CDB7DEB72091EE
:100800007600309177008BED95E0821B930BCF91B2
:10081000DF910895DF93CF9300D0CDB7DEB79A83F1
:10082000898389819A810396E981FA819283818300
:10083000E981FA818FEF9FEF9483838389819A8185
:100840000396E981FA819683858389819A8103964B
:10085000E981FA8190878783E981FA8110820F907C
:100860000F90CF91DF910895DF93CF9300D0CDB754
:10087000DEB79A838983E981FA81118610860F9009
:100880000F90CF91DF910895DF93CF9300D000D0E8
:1008900000D0CDB7DEB79C838B837E836D83EB81E5
:1008A000FC81818192819A838983ED81FE81898196
:1008B0009A8193838283E981FA8184819581ED8194
:1008C000FE8195838483E981FA810480F581E02D9E
:1008D0008D819E8193838283E981FA818D819E81BE
:1008E00095838483ED81FE818B819C8191878087B4
:1008F000EB81FC8180818F5FEB81FC818083269678
:100900000FB6F894DEBF0FBECDBFCF91DF91089533
:10091000DF93CF93CDB7DEB728970FB6F894DEBF3D
:100920000FBECDBF9E838D8378876F83EF81F8855F
:10093000808191819A83898389819A812FEF8F3F6A
:10094000920739F4ED81FE81878190859C838B83AA
:1009500018C08D819E8103969C838B8306C0EB819A
:10096000FC81828193819C838B83EB81FC8102805B
:10097000F381E02D2081318189819A81821793074B
:1009800070F7EB81FC8182819381EF81F8859383FD
:100990008283EF81F8850280F381E02D8F81988535
:1009A00095838483EF81F8858B819C8195838483F3
:1009B000EB81FC818F81988593838283EF81F88519
:1009C0008D819E8191878087ED81FE8180818F5FFF
:1009D000ED81FE81808328960FB6F894DEBF0FBEAE
:1009E000CDBFCF91DF910895DF93CF9300D000D09A
:1009F000CDB7DEB79C838B83EB81FC8180859185AD
:100A00009A838983EB81FC81A281B381EB81FC8194
:100A10008481958115969C938E931497EB81FC812C
:100A2000A481B581EB81FC818281938113969C9393
:100A30008E931297E981FA81218132818B819C8189
:100A40002817390741F4EB81FC8184819581E98184
:100A5000FA8192838183EB81FC8111861086E98182
:100A6000FA8180818150E981FA818083E981FA816C
:100A700080810F900F900F900F90CF91DF9108958C
:100A8000DF93CF93CDB7DEB728970FB6F894DEBFCC
:100A90000FBECDBF9C838B837E836D8358874F832E
:100AA000EB81FC8181E180838B819C8101979C8318
:100AB0008B83EB81FC8182E280838B819C81019717
:100AC0009C838B83EB81FC8183E380838B819C817E
:100AD00001979C838B838D819E819A8389838981F1
:100AE000EB81FC8180838B819C8101979C838B832C
:100AF00089819A81892F99279A8389838981EB81BA
:100B0000FC8180838B819C8101979C838B83EB810B
:100B1000FC8110828B819C8101979C838B83EB816C
:100B2000FC8180E880838B819C8101979C838B83EF
:100B3000EB81FC8110828B819C8101979C838B834C
:100B4000EB81FC8182E080838B819C8101979C8377
:100B50008B83EB81FC8183E080838B819C81019777
:100B60009C838B83EB81FC8184E080838B819C81DF
:100B700001979C838B83EB81FC8185E080838B8153
:100B80009C8101979C838B83EB81FC8186E0808331
:100B90008B819C8101979C838B83EB81FC8187E017
:100BA00080838B819C8101979C838B83EB81FC816B
:100BB00088E080838B819C8101979C838B83EB8170
:100BC000FC8189E080838B819C8101979C838B834E
:100BD000EB81FC8180E180838B819C8101979C83E8
:100BE0008B83EB81FC8181E180838B819C810197E8
:100BF0009C838B83EB81FC8182E180838B819C8150
:100C000001979C838B83EB81FC8183E180838B81C3
:100C10009C8101979C838B83EB81FC8184E18083A1
:100C20008B819C8101979C838B83EB81FC8185E187
:100C300080838B819C8101979C838B83EB81FC81DA
:100C400086E180838B819C8101979C838B83EB81E0
:100C5000FC8187E180838B819C8101979C838B83BE
:100C6000EB81FC8188E180838B819C8101979C834F
:100C70008B83EB81FC8189E180838B819C8101974F
:100C80009C838B83EB81FC8180E280838B819C81C0
:100C900001979C838B83EB81FC8181E280838B8134
:100CA0009C8101979C838B83EB81FC8182E2808312
:100CB0008B819C8101979C838B83EB81FC8183E2F8
:100CC00080838B819C8101979C838B838F81988506
:100CD0009A8389838981EB81FC8180838B819C81CC
:100CE00001979C838B8389819A81892F99279A8385
:100CF00089838981EB81FC8180838B819C81019731
:100D00009C838B83EB81FC8186E280838B819C8139
:100D100001979C838B83EB81FC8187E280838B81AD
:100D20009C8101979C838B83EB81FC8188E280838B
:100D30008B819C8101979C838B83EB81FC8189E271
:100D400080838B819C8101979C838B83EB81FC81C9
:100D500080E380838B819C8101979C838B83EB81D3
:100D6000FC8181E380838B819C8101979C838B83B1
:100D70008B819C8128960FB6F894DEBF0FBECDBF45
:100D8000CF91DF910895DF93CF93CDB7DEB70E9467
:100D9000B507A0915606B0915706CD91CDBFDD9114
:100DA000DEBFFF91EF91DF91CF91BF91AF919F9106
:100DB0008F917F916F915F914F913F912F911F91F3
:100DC0000F91FF90EF90DF90CF90BF90AF909F90EA
:100DD0008F907F906F905F904F903F902F901F90DB
:100DE0000F900FBE0F90089581E0CF91DF9108958D
:100DF000DF93CF93CDB7DEB7CF91DF9108950F92F8
:100E00000FB6F8940F921F9211242F923F924F9297
:100E10005F926F927F928F929F92AF92BF92CF928A
:100E2000DF92EF92FF920F931F932F933F934F9375
:100E30005F936F937F938F939F93AF93BF93CF9362
:100E4000DF93EF93FF93A0915606B09157060DB62E
:100E50000D920EB60D920E94691CA0915606B0919B
:100E60005706CD91CDBFDD91DEBFFF91EF91DF91B0
:100E7000CF91BF91AF919F918F917F916F915F9132
:100E80004F913F912F911F910F91FF90EF90DF9025
:100E9000CF90BF90AF909F908F907F906F905F901A
:100EA0004F903F902F901F900F900FBE0F9008957E
:100EB0000F920FB6F8940F921F9211242F923F9227
:100EC0004F925F926F927F928F929F92AF92BF925A
:100ED000CF92DF92EF92FF920F931F932F933F9346
:100EE0004F935F936F937F938F939F93AF93BF9332
:100EF000CF93DF93EF93FF93A0915606B0915706DF
:100F00000DB60D920EB60D920E94B01B882311F003
:100F10000E94691CA0915606B0915706CD91CDBF95
:100F2000DD91DEBFFF91EF91DF91CF91BF91AF9146
:100F30009F918F917F916F915F914F913F912F91F1
:100F40001F910F91FF90EF90DF90CF90BF90AF90E7
:100F50009F908F907F906F905F904F903F902F90D9
:100F60001F900F900FBE0F900895DF93CF9300D086
:100F700000D000D0CDB7DEB780E89EE3A0E0B0E0BF
:100F80008B839C83AD83BE838B819C81AD81BE812D
:100F9000689415F8B695A795979587951694D1F707
:100FA0008B839C83AD83BE838B819C81AD81BE810D
:100FB0000197A109B1098B839C83AD83BE838B818B
:100FC00089838B819C81AD81BE81892F9A2FAB2F24
:100FD000BB278B839C83AD83BE838B818A83EBE4A9
:100FE000F0E08A818083EAE4F0E0898180838BE00D
:100FF0008983EEE4F0E089818083E9E5F0E0808197
:101000008983898180618983E9E5F0E08981808332
:1010100026960FB6F894DEBF0FBECDBFCF91DF91FD
:1010200008951F920F920FB60F9211242F933F93A2
:101030004F935F936F937F938F939F93AF93BF93E0
:10104000EF93FF93DF93CF93CDB7DEB70E94B01B32
:10105000CF91DF91FF91EF91BF91AF919F918F91D0
:101060007F916F915F914F913F912F910F900FBEA4
:101070000F901F901895DF93CF9300D000D00F9260
:10108000CDB7DEB79C838B836D838B819C819A83E4
:1010900089830FB6F8940F92E981FA8140815181DA
:1010A000E981FA81838D282F30E0E981FA81848DEE
:1010B000882F90E0BC01269FC001279F900D369F8E
:1010C000900D1124840F951FE981FA819583848303
:1010D000E981FA81128EE981FA8180819181E98129
:1010E000FA8193838283E981FA8140815181E98188
:1010F000FA81838D882F90E09C0121503040E98156
:10110000FA81848D882F90E0BC01269FC001279F23
:10111000900D369F900D1124840F951FE981FA815F
:1011200097838683E981FA818FEF858FE981FA8140
:101130008FEF868F8D81882359F4E981FA8180852C
:10114000882381F089819A8108960E94281D0AC00F
:1011500089819A8108960E940A0489819A81419620
:101160000E940A040F900FBE81E00F900F900F9025
:101170000F900F90CF91DF9108950F931F93DF93FE
:10118000CF93CDB7DEB729970FB6F894DEBF0FBE69
:10119000CDBF8F83688749878885882319F41C828F
:1011A0001B8210C08F81282F30E08885882F90E027
:1011B000AC01249FC001259F900D349F900D1124F8
:1011C0009C838B838B819C814F960E948E039E8390
:1011D0008D838D819E810097A1F08D819E819A8360
:1011E000898389819A814F969A83898329813A815B
:1011F000ED81FE818F816885A90129858F010E947B
:101200000E098D819E8129960FB6F894DEBF0FBE20
:10121000CDBFCF91DF911F910F9108950F931F9331
:10122000DF93CF93CDB7DEB727970FB6F894DEBF25
:101230000FBECDBF89836A835C834B832D831F835D
:101240000E838A81882339F48E819F81EE81FF810C
:101250009183808306C08B819C81EE81FF81918385
:101260008083EE81FF818981838FEE81FF818A8176
:10127000848F8E819F8161E00E943B0827960FB684
:10128000F894DEBF0FBECDBFCF91DF911F910F91BC
:101290000895DF93CF93CDB7DEB72F970FB6F894AD
:1012A000DEBF0FBECDBF998788877B876A875D8742
:1012B0004C872E871C82888599859A8389830FB6EF
:1012C000F8940F92E981FA81928DE981FA81838DF8
:1012D000981718F08E858230C1F489819A812A8509
:1012E0003B85B9014E850E94850D8B83E981FA818A
:1012F0008189882329F089819A8141960E94281D3D
:101300000F900FBE81E08F875CC08C859D85009714
:1013100021F40F900FBE1F8654C08C81882331F4B6
:10132000CE0105960E940E1E81E08C830F900FBEA9
:101330000E94B81A0FB6F8940F92E981FA81858D50
:101340008F3F19F4E981FA81158EE981FA81868D42
:101350008F3F19F4E981FA81168E0F900FBECE01EE
:1013600005969E01245F3F4FB9010E94271E8823E6
:1013700009F589819A810E94010F8823A1F0898152
:101380009A8108962C853D85B9010E94D61C8981D9
:101390009A810E94720E0E94C41A882309F08FCF8E
:1013A0000E94FF068CCF89819A810E94720E0E9452
:1013B000C41A85CF89819A810E94720E0E94C41A34
:1013C0001F868F852F960FB6F894DEBF0FBECDBF58
:1013D000CF91DF910895DF93CF93CDB7DEB72C97F0
:1013E0000FB6F894DEBF0FBECDBF9F838E83798783
:1013F00068875B874A872C878E819F819B838A833E
:101400001C82EA81FB81928DEA81FB81838D981792
:1014100018F08C85823061F5EA81FB81868D8983A5
:101420008A819B8128853985B9014C850E94850D6B
:1014300089818F3FA9F4EA81FB8181898823A9F002
:101440008A819B8141960E94281D882371F08A859C
:101450009B85009751F0EA85FB8581E0808305C07C
:1014600089818F5FEA81FB81868F81E08D8301C056
:101470001D828D812C960FB6F894DEBF0FBECDBFB6
:10148000CF91DF910895DF93CF93CDB7DEB72A9741
:101490000FB6F894DEBF0FBECDBF98878F837A87D3
:1014A00069878F8198859C838B831D82EB81FC816A
:1014B000828D8A83EB81FC81938D8A81891748F51F
:1014C000EB81FC81868D89838A818F5FEB81FC8132
:1014D000828F89818F3FA9F4EB81FC8181898823E8
:1014E000A9F08B819C8141960E94281D882371F070
:1014F00089859A85009751F0E985FA8581E0808396
:1015000005C089818F5FEB81FC81868F81E08E83AE
:1015100001C01E828E812A960FB6F894DEBF0FBEE0
:10152000CDBFCF91DF910895DF93CF93CDB7DEB7D5
:101530002E970FB6F894DEBF0FBECDBF9987888770
:101540007B876A875D874C871C82888599859B830A
:101550008A830FB6F8940F92EA81FB81828D89838A
:1015600089818823D9F08A819B812A853B85B901AD
:101570000E942B0E89818150EA81FB81828FEA8152
:10158000FB818085882329F08A819B8108960E94AF
:10159000281D0F900FBE81E08E8763C08C859D85CE
:1015A000009721F40F900FBE1E865BC08C818823AC
:1015B00031F4CE0105960E940E1E81E08C830F90BF
:1015C0000FBE0E94B81A0FB6F8940F92EA81FB8101
:1015D000858D8F3F19F4EA81FB81158EEA81FB81AD
:1015E000868D8F3F19F4EA81FB81168E0F900FBE16
:1015F000CE0105969E01245F3F4FB9010E94271E30
:10160000882309F58A819B810E94C50E8823A1F059
:101610008A819B8141962C853D85B9010E94D61C0B
:101620008A819B810E94720E0E94C41A882309F04D
:1016300090CF0E94FF068DCF8A819B810E94720EFF
:101640000E94C41A86CF8A819B810E94720E0E94DA
:10165000C41A8A819B810E94C50E882309F479CF20
:101660001E868E852E960FB6F894DEBF0FBECDBFB8
:10167000CF91DF910895DF93CF93CDB7DEB72C974D
:101680000FB6F894DEBF0FBECDBF998788877B87E2
:101690006A871C82888599859B838A830FB6F89414
:1016A0000F92EA81FB81828D898389818823A1F051
:1016B00089818150EA81FB81828FEA81FB8180856B
:1016C000882329F08A819B8108960E94281D0F900B
:1016D0000FBE81E08C8763C08A859B85009721F4CB
:1016E0000F900FBE1C865BC08C81882331F4CE0125
:1016F00005960E940E1E81E08C830F900FBE0E9403
:10170000B81A0FB6F8940F92EA81FB81858D8F3F4E
:1017100019F4EA81FB81158EEA81FB81868D8F3F6A
:1017200019F4EA81FB81168E0F900FBECE0105964B
:101730009E01265F3F4FB9010E94271E882309F5AD
:101740008A819B810E94C50E8823A1F08A819B819A
:1017500041962A853B85B9010E94D61C8A819B81CE
:101760000E94720E0E94C41A882309F097CF0E942B
:10177000FF0694CF8A819B810E94720E0E94C41A38
:101780008DCF8A819B810E94720E0E94C41A8A8129
:101790009B810E94C50E882309F480CF1C868C850E
:1017A0002C960FB6F894DEBF0FBECDBFCF91DF9160
:1017B0000895DF93CF93CDB7DEB760970FB6F89457
:1017C000DEBF0FBECDBF9B878A877D876C875F8713
:1017D0004E871E828A859B859B838A830FB6F894E9
:1017E0000F92EA81FB81828D89838981882311F19F
:1017F000EA81FB81868197819D838C838A819B818D
:101800002C853D85B9010E942B0EEA81FB818C81DC
:101810009D8197838683EA81FB818189882329F0D2
:101820008A819B8141960E94281D0F900FBE81E006
:10183000888B63C08E859F85009721F40F900FBE23
:10184000188A5BC08E81882331F4CE0107960E94EE
:101850000E1E81E08E830F900FBE0E94B81A0FB645
:10186000F8940F92EA81FB81858D8F3F19F4EA810C
:10187000FB81158EEA81FB81868D8F3F19F4EA8109
:10188000FB81168E0F900FBECE0107969E01225F40
:101890003F4FB9010E94271E882309F58A819B8149
:1018A0000E94C50E8823A1F08A819B8141962E85D6
:1018B0003F85B9010E94D61C8A819B810E94720ECD
:1018C0000E94C41A882309F089CF0E94FF0686CFA0
:1018D0008A819B810E94720E0E94C41A7FCF8A81E6
:1018E0009B810E94720E0E94C41A8A819B810E9471
:1018F000C50E882309F472CF188A888960960FB6BE
:10190000F894DEBF0FBECDBFCF91DF910895DF9376
:10191000CF93CDB7DEB72C970FB6F894DEBF0FBECE
:10192000CDBF98878F837A8769875C874B878F8144
:1019300098859C838B831D82EB81FC81828D8A83B9
:101940008A81882381F1EB81FC81858D89838B815C
:101950009C8129853A85B9010E942B0E8A8181508C
:10196000EB81FC81828F89818F3FA9F4EB81FC811F
:1019700080858823A9F08B819C8108960E94281D70
:10198000882371F08B859C85009751F0EB85FC8551
:1019900081E0808305C089818F5FEB81FC81858F29
:1019A00081E08E8301C01E828E812C960FB6F89442
:1019B000DEBF0FBECDBFCF91DF910895DF93CF93F0
:1019C000CDB7DEB72A970FB6F894DEBF0FBECDBFF6
:1019D00098878F837A8769878F8198859A8389838F
:1019E0001D82E981FA81828D8823B1F0E981FA8133
:1019F000868197819C838B8389819A8129853A8509
:101A0000B9010E942B0EE981FA818B819C81978319
:101A1000868381E08E8301C01E828E812A960FB656
:101A2000F894DEBF0FBECDBFCF91DF910895DF9355
:101A3000CF9300D00F92CDB7DEB79B838A830FB6CA
:101A4000F8940F92EA81FB81828D89830F900FBEFB
:101A500089810F900F900F90CF91DF910895DF93C0
:101A6000CF9300D000D00F92CDB7DEB79D838C838B
:101A70008C819D819A8389830FB6F8940F92E981B6
:101A8000FA81938DE981FA81828D292F281B822F7B
:101A90008B830F900FBE8B810F900F900F900F9044
:101AA0000F90CF91DF910895DF93CF9300D000D0B6
:101AB0000F92CDB7DEB79D838C838C819D819A83F5
:101AC0008983E981FA81828D8B838B810F900F90BE
:101AD0000F900F900F90CF91DF910895DF93CF93E8
:101AE00000D000D0CDB7DEB79C838B838B819C81E7
:101AF0009A83898389819A810E94E4030F900F90D1
:101B00000F900F90CF91DF910895DF93CF93CDB7D2
:101B1000DEB727970FB6F894DEBF0FBECDBF9C830C
:101B20008B837E836D834F831A82EB81FC81828D50
:101B30008983EB81FC81848D882309F47DC08F81AA
:101B4000882399F5EB81FC8162817381EB81FC81B3
:101B5000848D482F50E02D813E81CB01B9010E9438
:101B60003928EB81FC8122813381EB81FC81848DDA
:101B7000882F90E0820F931FEB81FC8193838283F7
:101B8000EB81FC8122813381EB81FC818481958111
:101B90002817390708F450C0EB81FC8180819181BE
:101BA000EB81FC819383828347C0EB81FC8166815A
:101BB0007781EB81FC81848D482F50E02D813E811F
:101BC000CB01B9010E943928EB81FC812681378144
:101BD000EB81FC81848D882F90E0909581959F4FBB
:101BE000820F931FEB81FC8197838683EB81FC81BD
:101BF00026813781EB81FC8180819181281739070B
:101C000090F4EB81FC8124813581EB81FC81848D12
:101C1000882F90E0909581959F4F820F931FEB81C5
:101C2000FC81978386838F81823031F48981882378
:101C300019F089818150898389818F5FEB81FC81D3
:101C4000828F8A8127960FB6F894DEBF0FBECDBF74
:101C5000CF91DF910895DF93CF9300D000D0CDB71F
:101C6000DEB79A8389837C836B83E981FA81848DD3
:101C7000882389F1E981FA8126813781E981FA8116
:101C8000848D882F90E0820F931FE981FA819783DA
:101C90008683E981FA8126813781E981FA8184810D
:101CA00095812817390740F0E981FA818081918177
:101CB000E981FA8197838683E981FA814681578198
:101CC000E981FA81848D282F30E08B819C81BA01D3
:101CD000A9010E9439280F900F900F900F90CF917B
:101CE000DF910895DF93CF9300D000D0CDB7DEB75A
:101CF0009C838B830FB6F8940F92EB81FC81868DC9
:101D00008A8311C0EB81FC818189882379F08B81E2
:101D10009C8141960E94281D882311F00E94941EE8
:101D20008A8181508A838A81181664F3EB81FC8151
:101D30008FEF868F0F900FBE0FB6F8940F92EB8146
:101D4000FC81858D898311C0EB81FC81808588238E
:101D500079F08B819C8108960E94281D882311F0C0
:101D60000E94941E8981815089838981181664F3A9
:101D7000EB81FC818FEF858F0F900FBE0F900F903E
:101D80000F900F90CF91DF910895DF93CF9300D004
:101D90000F92CDB7DEB79B838A830FB6F8940F926C
:101DA000EA81FB81828D882319F481E0898301C057
:101DB00019820F900FBE89810F900F900F90CF91D5
:101DC000DF910895DF93CF9300D000D00F92CDB76D
:101DD000DEB79D838C838C819D819A838983E98181
:101DE000FA81828D882319F481E08B8301C01B82E4
:101DF0008B810F900F900F900F900F90CF91DF91EC
:101E00000895DF93CF9300D00F92CDB7DEB79B83B9
:101E10008A830FB6F8940F92EA81FB81928DEA8152
:101E2000FB81838D981719F481E0898301C01982A1
:101E30000F900FBE89810F900F900F90CF91DF917F
:101E40000895DF93CF9300D000D00F92CDB7DEB7C7
:101E50009D838C838C819D819A838983E981FA811A
:101E6000928DE981FA81838D981719F481E08B8333
:101E700001C01B828B810F900F900F900F900F90DD
:101E8000CF91DF9108950F93DF93CF93CDB7DEB756
:101E900028970FB6F894DEBF0FBECDBF9D838C830D
:101EA0007F836E8348878885813019F481E0898338
:101EB00001C019828E819F81009721F481E090E01A
:101EC0009F838E838C819D8101969D838C838C81E1
:101ED0009D810F960E948E039B838A838A819B81BA
:101EE000009789F06A817B818A819B819C01215FB7
:101EF0003F4F4C815D81EE81FF81CB01B9019F0194
:101F000009810E949B168A819B8128960FB6F894BE
:101F1000DEBF0FBECDBFCF91DF910F910895DF934C
:101F2000CF9300D000D0CDB7DEB79C838B838B815D
:101F30009C819A838983E981FA818685882F90E044
:101F400082709070009729F489819A810E94E4033D
:101F500008C089819A8160E070E04FE050E00E9403
:101F600042280F900F900F900F90CF91DF9108951E
:101F70000F93DF93CF9300D000D00F92CDB7DEB791
:101F80009D838C838C819D819B838A8319820FB66C
:101F9000F8940F92EA81FB81808591850097F1F496
:101FA000EA81FB81828593850097C1F4EA81FB81F8
:101FB00024853585EA81FB8144815581EA81FB8155
:101FC000A681B781EA81FB81E6858A819B81B9017F
:101FD0009D010E2F0E949B1681E089830F900FBEFA
:101FE00089810F900F900F900F900F90CF91DF91FC
:101FF0000F910895DF93CF93CDB7DEB727970FB634
:10200000F894DEBF0FBECDBF9D838C837F836E832C
:102010008C819D819B838A838E819F81009721F48F
:1020200081E090E09F838E83EA81FB81248135816A
:102030008E819F812817390748F0EA81FB818E81C4
:102040009F819783868381E0898301C0198289817A
:1020500027960FB6F894DEBF0FBECDBFCF91DF91AC
:102060000895DF93CF9300D000D000D0CDB7DEB776
:102070009E838D838D819E819C838B83EB81FC81EC
:1020800024813581EB81FC8180819181820F931FB6
:102090009A838983EB81FC812281338189819A81B2
:1020A000821B930B9A83898389819A8101979A83F2
:1020B0008983EB81FC812481358189819A81821712
:1020C000930750F0EB81FC812481358189819A81CD
:1020D000821B930B9A83898389819A8126960FB6F6
:1020E000F894DEBF0FBECDBFCF91DF910895DF938F
:1020F000CF9300D000D000D0CDB7DEB79E838D83C4
:102100008D819E819C838B838B819C810E94611633
:102110009A83898389819A8126960FB6F894DEBFC7
:102120000FBECDBFCF91DF910895EF92FF920F9335
:102130001F93DF93CF93CDB7DEB763970FB6F894B5
:10214000DEBF0FBECDBF9D878C877F876E87598B83
:10215000488B3B8B2A8B8C859D8598878F831C822F
:102160001B82888999899A838983EF81F88586857E
:10217000882F90E081709070882329F089819A815E
:1021800002969A8389838A899B89009709F440C0C3
:10219000CE0109960E94F01D0FB6F8940F928F8120
:1021A00098850E9431109C838B832B813C8189818F
:1021B0009A812817390750F580E090E00E94B822F4
:1021C0000E94191FEF81F885938782870F900FBEB9
:1021D000EA89FB8960E070E080E090E020E030E098
:1021E00040E050E000E010E07F010E94C91FEF8155
:1021F000F88513861286CE0109969E012E5E3F4F0A
:10220000B9010E94271E882339F202C00F900FBE29
:102210008B819C81009731F48F8198850E943110C9
:102220009C838B838F8198852E853F85488959892A
:10223000EB81FC81A981BA81B9019F018D010E94C6
:10224000DA119E838D838D819E81009739F18F8174
:1022500098850E9461169C01EF81F885868197819F
:1022600028173907D8F00E94B81AEF81F8858085C1
:102270009185009789F0EF81F8858085918540E010
:1022800050E060E070E020E000E010E00E94652097
:10229000EF81F885118610860E94C41A8D819E8177
:1022A00063960FB6F894DEBF0FBECDBFCF91DF911E
:1022B0001F910F91FF90EF900895EF92FF920F936F
:1022C0001F93DF93CF93CDB7DEB761970FB6F89426
:1022D000DEBF0FBECDBF9B878A877D876C875F87F8
:1022E0004E87398B288B8A859B85998788878E8531
:1022F0009F859B838A83E885F9858685882F90E072
:1023000081709070882329F08A819B8102969B833B
:102310008A83888599850E9431109D838C83888566
:1023200099852C853D854E855F85EC81FD81AA814F
:10233000BB81B9019F018D010E94DA119F838E83B9
:102340008E819F81009739F1888599850E94611659
:102350009C01E885F9858681978128173907D8F08F
:102360001982E885F985808591850097A1F0E88537
:10237000F98580859185E889F98940E050E060E041
:1023800070E020E000E010E07F010E943A21E88543
:10239000F985118610868E819F8161960FB6F8941B
:1023A000DEBF0FBECDBFCF91DF911F910F91FF9088
:1023B000EF9008950F931F93DF93CF93CDB7DEB7C0
:1023C00061970FB6F894DEBF0FBECDBF9D838C839F
:1023D0007F836E83598748873B872A871D870C87B1
:1023E0008A859B85009711F41B8238C0EC81FD81A2
:1023F0008685882F90E0817090700097D1F481E0FD
:102400008B8328853985398B288B8A859B859F8787
:102410008E872E853F85888999898217930720F4B6
:10242000288939893F872E878E859F859987888758
:1024300015C02A853B858C859D852817390768F04E
:1024400081E08B839E01285F3F4F8C819D81B90184
:1024500042E050E00E94271501C01B828B81882337
:1024600061F02E813F81488559858C819D81B9011C
:102470000E9427159A83898302C01A821982898152
:102480009A8161960FB6F894DEBF0FBECDBFCF9193
:10249000DF911F910F910895EF92FF920F931F9379
:1024A000DF93CF93CDB7DEB760970FB6F894DEBF5A
:1024B0000FBECDBF9A8789877C876B875E874D87E4
:1024C000388B2F8789859A8598878F831E821D82F6
:1024D000EF81F8858685882F90E081709070882341
:1024E00029F082E090E09A83898302C01A821982DF
:1024F0008F859889009709F43DC00FB6F8940F9224
:102500008F8198850E9461169C838B832B813C81EF
:1025100089819A818217930750F080E090E00E94B1
:10252000B8220E94191FEF81F885918780870F904C
:102530000FBE2B813C8189819A818217930700F11C
:10254000EF85F88960E070E080E090E020E030E026
:1025500040E050E000E010E07F010E94C91FEF81E1
:10256000F885118610868F8198850E9461169C835C
:102570008B8306C08F8198850E9461169C838B8314
:102580002B813C8189819A818217930780F58F8105
:1025900098852B853C854D855E85EB81FC81A981E5
:1025A000BA81B9019F018D010E94D0139E838D8352
:1025B0008D819E810097D9F00E94B81AEF81F8852D
:1025C00082859385009789F0EF81F88582859385D0
:1025D00040E050E060E070E020E000E010E00E94A9
:1025E0006520EF81F885138612860E94C41A8D81BA
:1025F0009E8160960FB6F894DEBF0FBECDBFCF911F
:10260000DF911F910F91FF90EF900895DF93CF938B
:10261000CDB7DEB72C970FB6F894DEBF0FBECDBF97
:102620009C878B878B859C8598878F83EF81F88526
:102630008685882F90E081709070882361F18F816A
:1026400098850E9461169C838B838B819C8183304B
:102650009105F0F0EF81F885808191819A838983DB
:102660009E01275F3F4F8F819885EB81FC81B901E7
:1026700042E050E09F010E94B41589859A859E83AF
:102680008D83EF81F88589819A819183808305C04C
:102690001E821D8202C01E821D828D819E812C960B
:1026A0000FB6F894DEBF0FBECDBFCF91DF91089576
:1026B000EF92FF920F931F93DF93CF93CDB7DEB7C7
:1026C00061970FB6F894DEBF0FBECDBF9B878A8798
:1026D0007D876C875F874E87398B288B8A859B85A2
:1026E000998788871F821E82E885F9858685882FCD
:1026F00090E081709070882329F082E090E09B83C5
:102700008A8302C01B821A82888599850E9461167D
:102710009D838C832C813D818A819B8182179307C5
:1027200080F5888599852C853D854E855F85EC8172
:10273000FD81AA81BB81B9019F018D010E94D01347
:102740009F838E838E819F810097D9F01982E885BF
:10275000F985828593850097A1F0E885F9858285C2
:102760009385E889F98940E050E060E070E020E07E
:1027700000E010E07F010E943A21E885F985138688
:1027800012868E819F8161960FB6F894DEBF0FBED0
:10279000CDBFCF91DF911F910F91FF90EF900895E2
:1027A0000F931F93DF93CF93CDB7DEB762970FB62A
:1027B000F894DEBF0FBECDBF9A8789877C876B8771
:1027C0005E874D87388B2F871A8B098B89899A8969
:1027D000009791F1E985FA85808191819E838D83AF
:1027E000AE01495F5F4F89859A8529893A89EF85CE
:1027F000F889BA01A9019F010E94B4158F819885BB
:102800009A8389832F85388989899A89A901481BE8
:10281000590BCA01988B8F8729813A818D859E85B6
:102820008217930768F4E985FA858D819E819183EB
:1028300080831A82198204C08D859E859A8389833C
:102840004B855C8589859A8529813A81EF85F88950
:10285000BA01A9019F010E94B4159C838B838B81CF
:102860009C8162960FB6F894DEBF0FBECDBFCF91AC
:10287000DF911F910F910895DF93CF93CDB7DEB70E
:1028800027970FB6F894DEBF0FBECDBF9F838E8310
:102890008E819F819D838C83EC81FD8180819181DC
:1028A0009A838983EC81FD812281338189819A8198
:1028B0002817390719F481E08B8301C01B828B81B3
:1028C00027960FB6F894DEBF0FBECDBFCF91DF9134
:1028D0000895DF93CF93CDB7DEB727970FB6F8945F
:1028E000DEBF0FBECDBF9F838E838E819F819A8373
:1028F0008983E981FA818685882F90E081709070C4
:10290000882329F082E090E09C838B8302C01C82A4
:102910001B828E819F810E9431109C018B819C8142
:102920008217930718F081E08D8301C01D828D818D
:1029300027960FB6F894DEBF0FBECDBFCF91DF91C3
:102940000895EF92FF920F931F93DF93CF93CDB72C
:10295000DEB728970FB6F894DEBF0FBECDBF9E83BB
:102960008D8378876F838D819E819C838B83198271
:10297000EB81FC81808591850097B9F0EB81FC812A
:1029800080859185EF81F88540E050E060E070E05F
:1029900020E000E010E07F010E943A21EB81FC8101
:1029A0001186108681E08A8301C01A828A81289666
:1029B0000FB6F894DEBF0FBECDBFCF91DF911F9150
:1029C0000F91FF90EF900895EF92FF920F931F9356
:1029D000DF93CF93CDB7DEB728970FB6F894DEBF5D
:1029E0000FBECDBF9E838D8378876F838D819E813F
:1029F0009C838B831982EB81FC8182859385009770
:102A0000B9F0EB81FC8182859385EF81F88540E008
:102A100050E060E070E020E000E010E07F010E9404
:102A20003A21EB81FC811386128681E08A8301C002
:102A30001A828A8128960FB6F894DEBF0FBECDBFEA
:102A4000CF91DF911F910F91FF90EF900895DF9349
:102A5000CF93CDB7DEB72E970FB6F894DEBF0FBE7B
:102A6000CDBF9E838D8378876F835A874987ED8199
:102A7000FE81828193819C838B83ED81FE81248101
:102A800035818B819C81A901481B590BCA0129857D
:102A90003A853E872D879C878B874B855C858D8506
:102AA0009E858417950720F42D853E853C872B87CE
:102AB0004B855C855A834983ED81FE81248535856C
:102AC0008B819C81820F931F2F81388549815A8188
:102AD000B9010E94392829853A8589819A8182170E
:102AE0009307B0F4ED81FE81648575852F8138856B
:102AF00089819A81A901480F591F29853A858981C1
:102B00009A81281B390BCB01BA01A9010E943928EF
:102B10002B813C8189859A85820F931F9C838B83AF
:102B2000ED81FE81248135818B819C818217930701
:102B300050F0ED81FE81248135818B819C81821B47
:102B4000930B9C838B83ED81FE818B819C8193838E
:102B5000828389859A852E960FB6F894DEBF0FBEC4
:102B6000CDBFCF91DF910895DF93CF93CDB7DEB77F
:102B700066970FB6F894DEBF0FBECDBF98878F83E0
:102B80007A8769875C874B873E872D872D853E85B1
:102B90003A8B298B4B855C85588B4F878F8598891D
:102BA00029893A892817390720F449895A89588B85
:102BB0004F878F8598899E838D838D819E81009715
:102BC00009F474C0EF81F885808191819A838983AB
:102BD000EF81F8852481358189819A81A901481B7B
:102BE000590BCA012D813E813E8B2D8B9C8B8B8B8B
:102BF0004B895C898D899E898417950720F42D89DE
:102C00003E893C8B2B8B4B895C895C834B83EF81AA
:102C1000F8852485358589819A81A901480F591F36
:102C200089859A852B813C81BA01A9010E943928A6
:102C30002D813E818B819C8182179307B0F4298579
:102C40003A858B819C81B901680F791FEF81F885E6
:102C5000448555852D813E818B819C81281B390BB4
:102C6000CB01BA01A9010E94392829813A818D81BD
:102C70009E81820F931F9A838983EF81F885248137
:102C8000358189819A818217930750F0EF81F88509
:102C90002481358189819A81821B930B9A83898350
:102CA000EF81F88589819A81918380838D819E81CE
:102CB00066960FB6F894DEBF0FBECDBFCF91DF9101
:102CC0000895DF93CF9300D000D0CDB7DEB79C83BB
:102CD0008B83EB81FC8124813581EB81FC818281B6
:102CE0009381820F931F9A838983EB81FC812081DA
:102CF000318189819A81821B930B9A838983EB812D
:102D0000FC812481358189819A818217930750F053
:102D1000EB81FC812481358189819A81821B930B0F
:102D20009A83898389819A810F900F900F900F90D9
:102D3000CF91DF9108950F93DF93CF93CDB7DEB797
:102D400029970FB6F894DEBF0FBECDBF9A83898353
:102D50007C836B835E834D8338872F8309878981CA
:102D60009A8160E070E04FE050E00E944228E981E3
:102D7000FA818B819C8195878487E981FA818D8195
:102D80009E8195838483E981FA818F8198859783D9
:102D90008683E981FA818985868729960FB6F8941A
:102DA000DEBF0FBECDBFCF91DF910F9108958F92FF
:102DB0009F92AF92BF92CF92DF92EF92FF920F93CA
:102DC0001F93DF93CF93CDB7DEB760970FB6F8941C
:102DD000DEBF0FBECDBF9F838E83798768875B87F9
:102DE0004A873D872C870E87F88AEF868A859B85E0
:102DF0000E948E039A83898389819A810097B1F01A
:102E000086E290E00E948E039D838C838C819D815D
:102E1000009739F0EC81FD8189819A81908F878BB1
:102E200007C089819A810E94E40302C01D821C822E
:102E30008C819D810097E9F08A859B859C0140E00B
:102E400050E08E819F8168857985EC85FD85AF8511
:102E5000B889AC80BD808F01EE846D0188249924EF
:102E60000E944F178C819D810E940B1881E08B83FB
:102E700002C08FEF8B838B8160960FB6F894DEBF14
:102E80000FBECDBFCF91DF911F910F91FF90EF90BB
:102E9000DF90CF90BF90AF909F908F9008958F92CA
:102EA0009F92AF92BF92CF92DF92EF920F931F93B8
:102EB000DF93CF93CDB7DEB764970FB6F894DEBF3C
:102EC0000FBECDBF9D838C837F836E832887398718
:102ED0004A875B871D870C87EE86D88ACF86BA8A99
:102EE000A98A9C8A8B8AE989FA892789308D888505
:102EF00099850197820F931F9B838A838E819F817F
:102F0000009751F1198221C08981482F50E08981B1
:102F1000282F30E08E819F81FC01E20FF31F20817A
:102F200089899A89840F951FFC017996208389816C
:102F3000282F30E08E819F81FC01E20FF31F8081FA
:102F4000882331F089818F5F898389818830E0F21D
:102F5000E989FA8910A203C0E989FA89118E8E8560
:102F6000843010F083E08E87E989FA898E85868B1C
:102F700089899A8902960E94340489899A890C96D3
:102F80000E943404E989FA8989899A89918780871E
:102F90008E85282F30E084E090E0821B930BE98936
:102FA000FA8995878487E989FA8989899A89938B2F
:102FB000828BE989FA8911A212A213A214A2E989CB
:102FC000FA8915A28A819B812C813D814C855D8582
:102FD000B9010E944005E989FA89918380838F8530
:102FE0009889009731F0EF85F88989899A899183CA
:102FF000808364960FB6F894DEBF0FBECDBFCF912D
:10300000DF911F910F91EF90DF90CF90BF90AF9025
:103010009F908F900895DF93CF9300D000D0CDB7CD
:10302000DEB79A8389830FB6F8940F928091580681
:103030008F5F8093580680915606909157060097AF
:1030400069F489819A8190935706809356068091FE
:1030500058068130B9F40E94AA1E14C080915C0603
:10306000882381F4E0915606F09157069689E9810C
:10307000FA818689891730F089819A819093570661
:1030800080935606809160068F5F80936006E98189
:10309000FA81968980915B06891728F4E981FA8183
:1030A000868980935B06E981FA818689282F30E042
:1030B000C901880F991F880F991F880F991F820FC8
:1030C000931FAC014A59594F89819A819C012E5F07
:1030D0003F4FCA01B9010E9444040F900FBE809176
:1030E0005C06882321F080915606909157060F9038
:1030F0000F900F900F90CF91DF910895DF93CF93B2
:10310000CDB7DEB72A970FB6F894DEBF0FBECDBF9E
:1031100098878F837A8769871B820E94B81A80916B
:10312000590690915A069A838983EF81F885208108
:10313000318189859A85820F931F9E838D83EF81CC
:10314000F8852081318189819A818217930798F4CB
:10315000EF81F885208131818D819E8182179307CF
:10316000E0F42D813E8189819A8182179307A8F42A
:1031700081E08B8312C0EF81F885208131818D81C0
:103180009E818217930738F02D813E8189819A8133
:103190008217930710F481E08B83EF81F8858D818E
:1031A0009E81918380838B81882349F08D819E81CC
:1031B00029813A81821B930B60E00E94F2220E94D7
:1031C000C41A8C838C81882311F40E94FF062A96EE
:1031D0000FB6F894DEBF0FBECDBFCF91DF9108953B
:1031E000DF93CF9300D00F92CDB7DEB79B838A8356
:1031F00019828A819B81009751F00E94B81A8A81B6
:103200009B8160E00E94F2220E94C41A8983898116
:10321000882311F40E94FF060F900F900F90CF911A
:10322000DF910895DF93CF9300D000D000D0CDB7C9
:10323000DEB79C838B830FB6F8940F928B819C81B1
:10324000009739F480915606909157069E838D839E
:1032500004C08B819C819E838D838D819E819A8306
:10326000898389819A8102960E94F404E981FA8116
:1032700084899589009729F089819A810C960E940A
:10328000F40489819A819C012E5F3F4F89EA96E080
:10329000B9010E944404E981FA8185A1813019F4C1
:1032A000E981FA8115A20F900FBE80915C068823F8
:1032B00039F00FB6F8940F920E94EE1E0F900FBED9
:1032C000209156063091570689819A81821793077B
:1032D000A1F480915C06882319F00E94FF060DC0BE
:1032E0009091A90680915806981729F410925706D4
:1032F0001092560602C00E94691C26960FB6F894DA
:10330000DEBF0FBECDBFCF91DF910895DF93CF9386
:1033100000D000D00F92CDB7DEB79D838C831B8287
:103320008C819D819A838983E981FA818285938545
:1033300026E0893A920781F4E981FA8184899589A6
:1033400026E0803A920741F0E981FA8184899589E3
:10335000009711F481E08B838B810F900F900F9079
:103360000F900F90CF91DF910895DF93CF9300D00E
:1033700000D000D0CDB7DEB79C838B838B819C813E
:103380009A838983209156063091570689819A81C4
:103390008217930709F43FC089819A81009709F445
:1033A0003AC00FB6F8940F9289819A810E948619CB
:1033B000882379F189819A8102960E94F404E98137
:1033C000FA81968980915B06891728F4E981FA8150
:1033D000868980935B06E981FA818689282F30E00F
:1033E000C901880F991F880F991F880F991F820F95
:1033F000931FAC014A59594F89819A819C012E5FD4
:103400003F4FCA01B9010E94440480915606909131
:1034100057060F900FBE26960FB6F894DEBF0FBE6C
:10342000CDBFCF91DF910895DF93CF9300D000D02F
:1034300000D0CDB7DEB79E838D831C828D819E81A7
:103440009B838A8319828A819B810E9486198823A3
:1034500009F446C0809165068823C1F5EA81FB81A5
:103460009689E0915606F09157068689981710F0D4
:1034700081E08C838A819B8102960E94F404EA8118
:10348000FB81968980915B06891728F4EA81FB818C
:10349000868980935B06EA81FB818689282F30E04C
:1034A000C901880F991F880F991F880F991F820FD4
:1034B000931FAC014A59594F8A819B819C012E5F11
:1034C0003F4FCA01B9010E9444040AC08A819B810E
:1034D0009C01245F3F4F80EA96E0B9010E944404BA
:1034E0008C8126960FB6F894DEBF0FBECDBFCF916C
:1034F000DF910895EF92FF920F93DF93CF930F9296
:10350000CDB7DEB78EE99EE120E630E0E3E6F6E0F7
:10351000B90145E550E020E030E000E07F010E9485
:10352000D71689838981813081F4F8948FEF9FEFDA
:10353000909362068093610681E080935C0610920E
:103540005A06109259060E94C3060F90CF91DF9140
:103550000F91FF90EF900895DF93CF93CDB7DEB733
:10356000F89410925C060E94F806CF91DF910895BE
:10357000DF93CF93CDB7DEB7809165068F5F8093E1
:103580006506CF91DF910895DF93CF9300D000D0EF
:103590000F92CDB7DEB71C821B821A820FB6F89449
:1035A0000F92809165068150809365068091650633
:1035B000882309F06DC080915806882309F468C0FB
:1035C00045C0E091A506F091A606868197819C836F
:1035D0008B838B819C810C960E94F4048B819C814F
:1035E00002960E94F404EB81FC81968980915B062F
:1035F000891728F4EB81FC81868980935B06EB8137
:10360000FC818689282F30E0C901880F991F880F17
:10361000991F880F991F820F931FAC014A59594F68
:103620008B819C819C012E5F3F4FCA01B9010E9492
:103630004404EB81FC819689E0915606F09157068F
:103640008689981718F081E080935E068091A00625
:10365000882309F0B6CF8B819C81009711F00E94DE
:10366000EE1E80915D0689838981882379F00E940E
:10367000B01B882319F081E080935E068981815018
:1036800089838981882399F710925D0680915E066F
:103690000F900FBE8A810F900F900F900F900F9098
:1036A000CF91DF910895DF93CF9300D0CDB7DEB7F0
:1036B0000FB6F8940F928091590690915A069A830A
:1036C00089830F900FBE89819A810F900F90CF91BF
:1036D000DF910895DF93CF9300D00F92CDB7DEB77F
:1036E00019828091590690915A069B838A838A8118
:1036F0009B810F900F900F90CF91DF910895DF93F2
:10370000CF93CDB7DEB780915806CF91DF91089562
:10371000DF93CF9300D000D000D0CDB7DEB79C832D
:103720008B838B819C81009739F480915606909110
:1037300057069E838D8304C08B819C819E838D83DD
:103740008D819E819A83898389819A814996269663
:103750000FB6F894DEBF0FBECDBFCF91DF910895B5
:10376000DF93CF93CDB7DEB729970FB6F894DEBFBE
:103770000FBECDBF1D8280916506882309F09AC0D7
:103780008091590690915A0601969C838B838B8178
:103790009C8190935A06809359068B819C81009757
:1037A000D9F480919C0690919D069A83898380919B
:1037B0009E0690919F0690939D0680939C0689811A
:1037C0009A8190939F0680939E0680915F068F5FFB
:1037D00080935F060E94EE1E209161063091620682
:1037E0008B819C818217930708F469C0E0919C0645
:1037F000F0919D068081882339F48FEF9FEF90939D
:103800006206809361065BC0E0919C06F0919D0684
:103810000580F681E02D8681978199878887E885E4
:10382000F985828193819F838E832B813C818E8158
:103830009F812817390738F48E819F819093620603
:10384000809361063CC08885998502960E94F404A5
:10385000E885F98584899589009729F08885998577
:103860000C960E94F404E885F985968980915B06A0
:10387000891728F4E885F985868980935B06E885B1
:10388000F9858689282F30E0C901880F991F880F94
:10389000991F880F991F820F931FAC014A59594FE6
:1038A000888599859C012E5F3F4FCA01B9010E940E
:1038B00044049CCF80915D068F5F80935D068D816F
:1038C00029960FB6F894DEBF0FBECDBFCF91DF9122
:1038D0000895DF93CF9300D00F92CDB7DEB78091DC
:1038E0006506882321F081E080935E0659C010921E
:1038F0005E0680915B068B8303C08B8181508B8336
:103900008B81282F30E0C901880F991F880F991FDC
:10391000880F991F820F931FFC01EA59F94F80818C
:10392000882359F38B81282F30E0C901880F991F14
:10393000880F991F880F991F820F931F8A59994FDB
:103940009A838983E981FA810180F281E02D828165
:103950009381E981FA8192838183E981FA812181CE
:10396000328189819A8103962817390759F4E981B0
:10397000FA810180F281E02D82819381E981FA81CF
:1039800092838183E981FA810180F281E02D868131
:10399000978190935706809356068B8180935B06A0
:1039A0000F900F900F90CF91DF910895DF93CF93F9
:1039B00000D000D0CDB7DEB79A8389837C836B8338
:1039C00080915606909157069C01245F3F4F898154
:1039D0009A81B9010E9488048B819C8161E00E94D8
:1039E000F2220F900F900F900F90CF91DF910895DA
:1039F000DF93CF9300D000D000D0CDB7DEB79A834D
:103A000089837C836B835E834D83E0915606F091BE
:103A100057068B819C819068958784878091560694
:103A2000909157069C01245F3F4F89819A81B9018B
:103A30000E9444048D819E8161E00E94F2222696BC
:103A40000FB6F894DEBF0FBECDBFCF91DF910895C2
:103A5000DF93CF9300D000D00F92CDB7DEB79D8318
:103A60008C83EC81FD810580F681E02D8681978134
:103A70009B838A838A819B810C960E94F4048091A7
:103A80006506882361F58A819B8102960E94F40471
:103A9000EA81FB81968980915B06891728F4EA8187
:103AA000FB81868980935B06EA81FB818689282FCA
:103AB00030E0C901880F991F880F991F880F991F3F
:103AC000820F931FAC014A59594F8A819B819C01F7
:103AD0002E5F3F4FCA01B9010E9444040AC08A8187
:103AE0009B819C01245F3F4F80EA96E0B9010E94D0
:103AF0004404EA81FB819689E0915606F0915706CD
:103B00008689891730F481E0898381E080935E069D
:103B100001C0198289810F900F900F900F900F9024
:103B2000CF91DF910895DF93CF9300D000D000D0E4
:103B3000CDB7DEB79C838B837E836D838D819E8121
:103B40009068EB81FC8191838083EB81FC8186818D
:103B500097819A8389838B819C810E94F404898157
:103B60009A8102960E94F404E981FA8196898091F3
:103B70005B06891728F4E981FA81868980935B06C0
:103B8000E981FA818689282F30E0C901880F991FC1
:103B9000880F991F880F991F820F931FAC014A59F4
:103BA000594F89819A819C012E5F3F4FCA01B9010B
:103BB0000E944404E981FA819689E0915606F091C9
:103BC00057068689891718F481E080935E06269649
:103BD0000FB6F894DEBF0FBECDBFCF91DF91089531
:103BE000DF93CF9300D0CDB7DEB79A8389830FB62A
:103BF000F8940F9280915F06E981FA818083809129
:103C0000590690915A06E981FA81928381830F9037
:103C10000FBE0F900F90CF91DF910895DF93CF9358
:103C200000D0CDB7DEB79A83898380915F06E981A2
:103C3000FA8180838091590690915A06E981FA8130
:103C4000928381830F900F90CF91DF910895DF933E
:103C5000CF93CDB7DEB729970FB6F894DEBF0FBE6E
:103C6000CDBF9F838E83798768870FB6F8940F92B4
:103C70008091590690915A069C838B83EE81FF8137
:103C8000218132818B819C81821B930B9A83898352
:103C9000E885F985808191812FEF8F3F920711F49C
:103CA0001D8236C0EE81FF81908180915F0698175A
:103CB00061F0EE81FF81218132818B819C818217AD
:103CC000930718F081E08D8323C0E885F985208172
:103CD000318189819A8182179307A0F4E885F9855B
:103CE0002081318189819A81A901481B590BCA0120
:103CF000E885F985918380838E819F810E940E1EC5
:103D00001D8206C0E885F9851182108281E08D83CD
:103D10000F900FBE8D8129960FB6F894DEBF0FBEAF
:103D2000CDBFCF91DF910895DF93CF93CDB7DEB7AD
:103D300081E080935E06CF91DF910895DF93CF936A
:103D400000D0CDB7DEB79A8389830E94E71E0E9418
:103D5000FF06FBCFDF93CF930F92CDB7DEB719826B
:103D600013C08981282F30E0C901880F991F880F5F
:103D7000991F880F991F820F931F8A59994F0E948C
:103D80000A0489818F5F89838981843050F38AE8AE
:103D900096E00E940A0483E996E00E940A0480EA01
:103DA00096E00E940A0489EA96E00E940A048AE8E2
:103DB00096E090939D0680939C0683E996E090930D
:103DC0009F0680939E060F90CF91DF910895DF9319
:103DD000CF93CDB7DEB7CF91DF910895DF93CF9327
:103DE00000D0CDB7DEB7E0919C06F0919D068081B2
:103DF000882339F48FEF9FEF9093620680936106DA
:103E000013C0E0919C06F0919D060580F681E02D9F
:103E1000868197819A838983E981FA81828193815E
:103E200090936206809361060F900F90CF91DF917F
:103E30000895DF93CF9300D0CDB7DEB780915606BB
:103E4000909157069A83898389819A810F900F9068
:103E5000CF91DF910895DF93CF9300D0CDB7DEB738
:103E6000E0915606F0915706848595859A8389835B
:103E7000A0915606B0915706E0915606F09157066C
:103E80008689282F30E084E090E0821B930B1D96FA
:103E90009C938E931C9789819A810F900F90CF915C
:103EA000DF910895DF93CF93CDB7DEB727970FB695
:103EB000F894DEBF0FBECDBF8D837F836E830FB6B8
:103EC000F8940F92E0915606F091570681A192A1C5
:103ED000A3A1B4A10097A105B10589F4E09156060C
:103EE000F091570681E085A38E819F81009739F07C
:103EF0008E819F8161E00E94F2220E94FF060F9056
:103F00000FBE0FB6F8940F92E0915606F091570647
:103F100081A192A1A3A1B4A189839A83AB83BC831D
:103F200089819A81AB81BC810097A105B105D9F047
:103F30008D81882349F0E0915606F091570611A231
:103F400012A213A214A20FC0E0915606F0915706D8
:103F500089819A81AB81BC810197A109B10981A3B3
:103F600092A3A3A3B4A3E0915606F091570615A21D
:103F70000F900FBE89819A81AB81BC81BC01CD01BC
:103F800027960FB6F894DEBF0FBECDBFCF91DF915D
:103F90000895EF92FF920F931F93DF93CF93CDB7C6
:103FA000DEB72D970FB6F894DEBF0FBECDBF6A8384
:103FB0007B838C839D832E833F83488759871B8710
:103FC0000A87FD86EC860FB6F8940F92E0915606AC
:103FD000F091570685A1823049F1E0915606F091A3
:103FE000570621A132A143A154A18A819B81AC81B2
:103FF000BD8180959095A095B09582239323A423AD
:10400000B52381A392A3A3A3B4A3E0915606F09194
:10401000570681E085A38C859D85009739F08C85B6
:104020009D8561E00E94F2220E94FF060F900FBE64
:104030000FB6F8940F928A859B85009771F0E091F6
:104040005606F091570681A192A1A3A1B4A1EA85D9
:10405000FB8580839183A283B383E0915606F09120
:10406000570685A1823011F019821AC0E0915606D8
:10407000F091570621A132A143A154A18E819F81C5
:10408000A885B98580959095A095B09582239323B6
:10409000A423B52381A392A3A3A3B4A381E089831E
:1040A000E0915606F091570615A20F900FBE898138
:1040B0002D960FB6F894DEBF0FBECDBFCF91DF9126
:1040C0001F910F91FF90EF9008950F931F93DF932F
:1040D000CF93CDB7DEB761970FB6F894DEBF0FBEB2
:1040E000CDBF9E838D834F83588769877A872B87BF
:1040F0001D870C8781E08A838D819E819C838B83C1
:104100000FB6F8940F928C859D85009761F0EB8136
:10411000FC8181A192A1A3A1B4A1EC85FD8580833E
:104120009183A283B383EB81FC8185A18983EB8199
:10413000FC8182E085A38B85282F30E0398B288B8A
:10414000888999898230910559F1288939892330E4
:10415000310534F4888999898130910561F04AC02C
:10416000288939892330310559F188899989843022
:10417000910589F13FC0EB81FC8121A132A143A1CE
:1041800054A18F819885A985BA85822B932BA42B66
:10419000B52BEB81FC8181A392A3A3A3B4A32AC076
:1041A000EB81FC8181A192A1A3A1B4A10196A11DE3
:1041B000B11DEB81FC8181A392A3A3A3B4A31AC078
:1041C000EB81FC818F819885A985BA8581A392A313
:1041D000A3A3B4A30FC08981823059F0EB81FC8185
:1041E0008F819885A985BA8581A392A3A3A3B4A33F
:1041F00001C01A828981813079F58B819C81029678
:104200000E94F404EB81FC81968980915B068917FA
:1042100028F4EB81FC81868980935B06EB81FC812D
:104220008689282F30E0C901880F991F880F991FB0
:10423000880F991F820F931FAC014A59594F8B81E8
:104240009C819C012E5F3F4FCA01B9010E9444042A
:1042500020915606309157060F900FBE8A816196C5
:104260000FB6F894DEBF0FBECDBFCF91DF911F9187
:104270000F910895EF92FF920F931F93DF93CF93C7
:10428000CDB7DEB762970FB6F894DEBF0FBECDBFD5
:104290009F838E83488759876A877B872C871E87F1
:1042A0000D87F88AEF8681E08A838E819F819D83C6
:1042B0008C8319828D859E85009761F0EC81FD814C
:1042C00081A192A1A3A1B4A1ED85FE8580839183F4
:1042D000A283B383EC81FD8185A18B83EC81FD8179
:1042E00082E085A38C85282F30E03A8B298B898941
:1042F0009A898230910559F129893A89233031050B
:1043000034F489899A898130910561F04AC02989FC
:104310003A892330310559F189899A898430910588
:1043200089F13FC0EC81FD8121A132A143A154A1BB
:1043300088859985AA85BB85822B932BA42BB52BC9
:10434000EC81FD8181A392A3A3A3B4A32AC0EC8135
:10435000FD8181A192A1A3A1B4A10196A11DB11DCE
:10436000EC81FD8181A392A3A3A3B4A31AC0EC8125
:10437000FD8188859985AA85BB8581A392A3A3A386
:10438000B4A30FC08B81823059F0EC81FD81888508
:104390009985AA85BB8581A392A3A3A3B4A301C0D9
:1043A0001A828B81813009F04FC080916506882385
:1043B00061F58C819D8102960E94F404EC81FD815F
:1043C000968980915B06891728F4EC81FD818689A6
:1043D00080935B06EC81FD818689282F30E0C9013E
:1043E000880F991F880F991F880F991F820F931F9D
:1043F000AC014A59594F8C819D819C012E5F3F4FE2
:10440000CA01B9010E9444040AC08C819D819C01AB
:10441000245F3F4F80EA96E0B9010E944404EC819A
:10442000FD819689E0915606F09157068689891795
:1044300058F48F859889009721F0EF85F88981E0FD
:10444000808381E080935E068A8162960FB6F8943D
:10445000DEBF0FBECDBFCF91DF911F910F91FF90B7
:10446000EF900895DF93CF93CDB7DEB728970FB6BF
:10447000F894DEBF0FBECDBF9E838D8378876F8398
:104480008D819E819C838B831982EB81FC8185A128
:104490008A83EB81FC8182E085A3EB81FC8181A191
:1044A00092A1A3A1B4A10196A11DB11DEB81FC8134
:1044B00081A392A3A3A3B4A38A81813009F04FC042
:1044C00080916506882361F58B819C8102960E940C
:1044D000F404EB81FC81968980915B06891728F4AE
:1044E000EB81FC81868980935B06EB81FC81868968
:1044F000282F30E0C901880F991F880F991F880F56
:10450000991F820F931FAC014A59594F8B819C818F
:104510009C012E5F3F4FCA01B9010E9444040AC0AA
:104520008B819C819C01245F3F4F80EA96E0B9011A
:104530000E944404EB81FC819689E0915606F0913B
:1045400057068689891758F48F819885009721F03E
:10455000EF81F88581E0808381E080935E06289674
:104560000FB6F894DEBF0FBECDBFCF91DF91089597
:10457000DF93CF93CDB7DEB727970FB6F894DEBFA2
:104580000FBECDBF9D838C838C819D81009739F4B4
:1045900080915606909157069F838E8304C08C812C
:1045A0009D819F838E838E819F819B838A830FB69B
:1045B000F8940F92EA81FB8185A1823031F4EA817F
:1045C000FB8115A281E0898301C019820F900FBE83
:1045D000898127960FB6F894DEBF0FBECDBFCF916D
:1045E000DF910895DF93CF93CDB7DEB727970FB64E
:1045F000F894DEBF0FBECDBF9E838D836F83809105
:10460000590690915A069A83898380915606909113
:10461000570602960E94F4048D819E812FEF8F3FF2
:10462000920781F48F81882369F0809156069091DA
:1046300057069C012E5F3F4F89EA96E0B9010E9420
:10464000440443C029813A818D819E81820F931F4A
:104650009C838B83E0915606F09157068B819C8159
:10466000938382832B813C8189819A812817390722
:1046700070F480919E0690919F062091560630918D
:1046800057062E5F3F4FB9010E9488041EC040911B
:104690009C0650919D0680915606909157069C016C
:1046A0002E5F3F4FCA01B9010E9488042091610624
:1046B000309162068B819C818217930730F48B8145
:1046C0009C81909362068093610627960FB6F894BA
:1046D000DEBF0FBECDBFCF91DF910895DF93CF93A3
:1046E00000D00F92CDB7DEB789838981282F30E0C3
:1046F0003B832A838A819B818230910509F447C0DC
:104700002A813B812330310554F48A819B810097B3
:10471000C9F02A813B812130310519F188C08A8195
:104720009B818430910509F45EC02A813B8124304D
:1047300031050CF442C08A819B818530910509F4D2
:1047400068C075C0A5E5B0E0E5E5F0E080818F7850
:104750008C93A5E5B0E0E5E5F0E0808180688C937E
:1047600066C0A5E5B0E0E5E5F0E080818F798C9347
:10477000A5E5B0E0E5E5F0E0808180618C93A5E5FA
:10478000B0E0E5E5F0E0808180688C9350C0A5E55D
:10479000B0E0E5E5F0E080818F7A8C93A5E5B0E0AC
:1047A000E5E5F0E0808180628C93A5E5B0E0E5E589
:1047B000F0E0808180688C933AC0A5E5B0E0E5E543
:1047C000F0E0808180638C93A5E5B0E0E5E5F0E062
:1047D00080818F7B8C93A5E5B0E0E5E5F0E08081FA
:1047E00080688C9324C0A5E5B0E0E5E5F0E0808129
:1047F00080668C93A5E5B0E0E5E5F0E080818F7EF2
:104800008C93A5E5B0E0E5E5F0E0808180688C93CD
:104810000EC0A5E5B0E0E5E5F0E0808180678C930F
:10482000A5E5B0E0E5E5F0E0808180688C938895AF
:104830000F900F900F90CF91DF910895DF93CF935A
:1048400000D000D00F92CDB7DEB79B838A8386EF6E
:1048500089838A819B81009719F482EF89838AC0BA
:10486000EA81FB818281882331F0EA81FB818281A8
:104870008F3F09F07DC0EA81FB818081282F30E0E5
:104880003D832C838C819D818130910561F12C8148
:104890003D81223031052CF48C819D81009769F097
:1048A00064C02C813D812230310599F18C819D813C
:1048B0008330910509F443C058C0AAE3B0E0EAE3AD
:1048C000F0E08081982FEA81FB8181818095292FFA
:1048D0002823EA81FB819281EA81FB8181818923FE
:1048E000822B8C9347C0A7E3B0E0E7E3F0E0808140
:1048F000982FEA81FB8181818095292F2823EA81E5
:10490000FB819281EA81FB8181818923822B8C93B7
:1049100031C0A4E3B0E0E4E3F0E08081982FEA81C5
:10492000FB8181818095292F2823EA81FB81928157
:10493000EA81FB8181818923822B8C931BC0A1E3B7
:10494000B0E0E1E3F0E08081982FEA81FB81818192
:104950008095292F2823EA81FB819281EA81FB81BE
:1049600081818923822B8C9305C085EF898302C0C6
:1049700085EF898389810F900F900F900F900F9092
:10498000CF91DF910895DF93CF9300D000D000D076
:10499000CDB7DEB78A836B834C8386EF89838C81A6
:1049A0008F3F21F08C81882309F062C08A81282FF3
:1049B00030E03E832D838D819E818130910529F1E8
:1049C0002D813E81223031052CF48D819E8100970E
:1049D00061F04BC02D813E812230310531F18D8156
:1049E0009E818330910589F140C0ABE3B0E0EBE3F9
:1049F000F0E08081982F8B818095292F28239C813E
:104A00008B818923822B8C9335C0A8E3B0E0E8E347
:104A1000F0E08081982F8B818095292F28239C811D
:104A20008B818923822B8C9325C0A5E3B0E0E5E33D
:104A3000F0E08081982F8B818095292F28239C81FD
:104A40008B818923822B8C9315C0A2E3B0E0E2E333
:104A5000F0E08081982F8B818095292F28239C81DD
:104A60008B818923822B8C9305C085EF898302C0BB
:104A700085EF8983898126960FB6F894DEBF0FBE35
:104A8000CDBFCF91DF910895DF93CF93CDB7DEB740
:104A900027970FB6F894DEBF0FBECDBF8A836B8316
:104AA0005D834C8386EF89838C819D81009719F407
:104AB00082EF898345C08A81282F30E03F832E838F
:104AC0008E819F8181309105F1F02E813F812230CE
:104AD00031052CF48E819F81009761F02FC02E81CB
:104AE0003F8122303105C1F08E819F818330910555
:104AF000E1F024C0E9E3F0E090818B818923EC812F
:104B0000FD8180831DC0E6E3F0E090818B818923E5
:104B1000EC81FD81808314C0E3E3F0E090818B8120
:104B20008923EC81FD8180830BC0E0E3F0E090817C
:104B30008B818923EC81FD81808302C085EF89838D
:104B4000898127960FB6F894DEBF0FBECDBFCF91F7
:104B5000DF910895DF93CF9300D000D00F92CDB7AF
:104B6000DEB78A836B8386EF89838A81282F30E0C2
:104B70003D832C838C819D8181309105F1F02C81C6
:104B80003D81223031052CF48C819D81009761F0AC
:104B90002FC02C813D8122303105C1F08C819D8157
:104BA00083309105E1F024C0ABE3B0E0EBE3F0E04B
:104BB00090818B8189278C931DC0A8E3B0E0E8E346
:104BC000F0E090818B8189278C9314C0A5E3B0E03D
:104BD000E5E3F0E090818B8189278C930BC0A2E301
:104BE000B0E0E2E3F0E090818B8189278C9302C0F2
:104BF00085EF898389810F900F900F900F900F9010
:104C0000CF91DF910895DF93CF9300D000D000D0F3
:104C1000CDB7DEB78C838091B206882F90E0880FE5
:104C2000991F880F991FFC01ED54F94F8C818083E7
:104C30008C81282F30E03E832D838D819E810097CB
:104C400031F02D813E812130310531F149C082E0C2
:104C5000898380E18A831B82CE0101960E941E24F3
:104C60008091B206882F90E0880F991F880F991FB6
:104C7000FC01EC54F94F82E080838091B206882FCA
:104C800090E0880F991F0196880F991FFC01ED5441
:104C9000F94F80E1808324C081E0898384E08A83A6
:104CA0001B82CE0101960E941E248091B206882F9D
:104CB00090E0880F991F880F991FFC01EC54F94F61
:104CC00081E080838091B206882F90E0880F991F41
:104CD0000196880F991FFC01ED54F94F84E0808301
:104CE0008091B2068F5F8093B20626960FB6F89435
:104CF000DEBF0FBECDBFCF91DF910895DF93CF937D
:104D000000D0CDB7DEB7198298C08981882F90E096
:104D1000880F991F880F991FFC01EC54F94F4081AF
:104D20008981882F90E0880F991F0196880F991F1D
:104D3000FC01ED54F94F90819E012E5F3F4F842F6F
:104D4000692FA9010E9444258981882F90E0880F4E
:104D5000991F0196880F991FFC01ED54F94F90811E
:104D60008A819817A9F58981882F90E0880F991F6B
:104D7000880F991FFC01EA54F94F8081882369F458
:104D80008981882F90E0880F991F880F991FFC0157
:104D9000EA54F94F81E080834DC08981882F90E0EB
:104DA000880F991F880F991FFC01EA54F94F8081E1
:104DB000813009F03FC08981882F90E0880F991FCA
:104DC000880F991FFC01EA54F94F82E0808332C0BA
:104DD0008981882F90E0880F991F880F991FFC0107
:104DE000EA54F94F8081823069F48981882F90E0FC
:104DF000880F991F880F991FFC01EA54F94F83E02F
:104E0000808318C08981882F90E0880F991F880FB0
:104E1000991FFC01EA54F94F8081833059F489814C
:104E2000882F90E0880F991F880F991FFC01EA5482
:104E3000F94F108289818F5F89839091B2068981B1
:104E4000891708F462CF0F900F90CF91DF910895EA
:104E5000DF93CF9300D00F92CDB7DEB78B8319824B
:104E60001DC08981882F90E0880F991F880F991F96
:104E7000FC01ED54F94F90818B81981761F4898181
:104E8000882F90E0880F991F880F991FFC01EA5422
:104E9000F94F80818A8389818F5F89839091B206DF
:104EA00089818917F0F28A810F900F900F90CF912E
:104EB000DF910895DF93CF93CDB7DEB72A970FB672
:104EC000F894DEBF0FBECDBF9D838C83CE010196CB
:104ED0009F838E83E3E7F0E0F987E887F3E0FA87C2
:104EE000E885F98500808885998501969987888766
:104EF000EE81FF8100828E819F8101969F838E8348
:104F00009A8591509A87EA85EE2351F7CE01019652
:104F10000E941E2480E090E00E941219D7CFDF93F8
:104F2000CF9300D000D00F92CDB7DEB79D838C8396
:104F300088EE93E09A83898387E08B8381E060E247
:104F40000E94AA258091BB069091BC069E012D5F10
:104F50003F4FB90141E050E020E030E00E94951061
:104F600089819A810E94F018E9CFDF93CF9300D016
:104F700000D000D0CDB7DEB79E838D8384EF91E063
:104F80009C838B8381E060E40E94AA258091BB060C
:104F90009091BC062EEB36E0B90141E050E025E0EF
:104FA00030E00E944C129A83898389819A8100970C
:104FB00021F081E060E10E94AA258B819C810E9402
:104FC000F018E0CFEF92FF920F93DF93CF9300D0D2
:104FD00000D000D0CDB7DEB71A8219821C821B82A6
:104FE0001E821D8281E090E060E070E041E00E945E
:104FF000430F9093BC068093BB068091BB069091B3
:10500000BC06009721F48FEF8093BD0602C010927A
:10501000BD068AE597E225E630E0FE013596B90146
:1050200044E650E021E030E001E07F010E94D71625
:105030008FE897E229E630E0B90144E650E021E04C
:1050400030E001E0FE0131967F010E94D71685EB2A
:1050500097E22EE630E0FE013396B90144E650E0D7
:1050600021E030E001E07F010E94D7160E947A1A09
:10507000FFCFFB01DC0102C001900D924150504076
:10508000D8F70895DC0101C06D9341505040E0F71E
:065090000895F894FFCF23
:1050960049444C450044494F004C454431004C4579
:0650A60044320001F0FF9E
:00000001FF
