:100000000C942A000C9447000C9447000C94470071
:100010000C9447000C94A6320C9447000C94E7090A
:100020000C9447000C946B320C9447000C943132C2
:100030000C9447000C94522E0C94EC2D0C941F2E13
:100040000C9447000C9447000C9447000C94470014
:100050000C94470011241FBECFE5D8E0DEBFCDBF12
:1000600011E0A0E6B0E0E6EEF8E702C005900D92E0
:10007000AA30B107D9F717E0AAE0B1E001C01D929C
:10008000A53FB107E1F70E94F73B0C94713C0C943B
:100090000000DF93CF93CDB7DEB780910A018F5F69
:1000A00080930A019091BC0080910A01981771F425
:1000B00010920A0181E080930B0180910E019091D2
:1000C0000F01019690930F0180930E01CF91DF9164
:1000D0000895DF93CF93CDB7DEB728970FB6F89486
:1000E000DEBF0FBECDBF8CE989838091BB008B83BF
:1000F0001C8284E08D8381E08E8389E490E0988780
:100100008F83CE0103960E94852E89838981823E4A
:1001100009F040C010920B0110920C0110920F01D7
:1001200010920E0181E080930D011A822FC08A8106
:10013000282F30E0C901880F991F880F991F820F5F
:10014000931FFC01E05FFE4F10828A81282F30E070
:10015000C901880F991F880F991F820F931FFC01F7
:10016000EF5EFE4F118210828A81282F30E0C90194
:10017000880F991F880F991F820F931FFC01ED5E56
:10018000FE4F118210828A818F5F8A838A81843137
:1001900070F202C010920D01898128960FB6F89472
:1001A000DEBF0FBECDBFCF91DF910895DF93CF9318
:1001B00000D000D000D0CDB7DEB79B838A837D838B
:1001C0006C834E838CE9898380910D01813009F025
:1001D0005AC08E81853118F085E9898356C08E8199
:1001E000282F30E0C901880F991F880F991F820FAF
:1001F000931FFC01E05FFE4F8081882319F089E99D
:10020000898343C08A819B81009719F488E9898397
:100210003CC08E81282F30E0C901880F991F880FBC
:10022000991F820F931FFC01EF5EFE4F8C819D8111
:10023000918380838E81282F30E0C901880F991F18
:10024000880F991F820F931FFC01ED5EFE4F8A817C
:100250009B81918380838E81282F30E0C901880F94
:10026000991F880F991F820F931FFC01E05FFE4FBB
:1002700082E0808390910C018E81981730F48E81FA
:1002800080930C0102C08AE98983898126960FB682
:10029000F894DEBF0FBECDBFCF91DF910895DF93FD
:1002A000CF9300D000D0CDB7DEB79C838B838CE991
:1002B0008A838B819C81009719F488E98A832CC0FA
:1002C000198225C08981282F30E0C901880F991F24
:1002D000880F991F820F931FFC01ED5EFE4F208156
:1002E00031818B819C812817390771F48981282FEE
:1002F00030E0C901880F991F880F991F820F931F43
:10030000FC01E05FFE4F108289818F5F89839091AD
:100310000C0189819817B0F68A810F900F900F9089
:100320000F90CF91DF910895DF93CF9300D0CDB799
:10033000DEB78CE98A83198280910D01813009F042
:1003400076C08091BB006AEF70E00E941F308A8304
:1003500080910B018130E1F719825DC08981282FDE
:1003600030E0C901880F991F880F991F820F931FD2
:10037000FC01E05FFE4F8081882309F449C0409171
:100380000E0150910F018981282F30E0C901880F9B
:10039000991F880F991F820F931FFC01EF5EFE4F7C
:1003A00020813181CA01B9010E942B3C009709F5D7
:1003B0008981282F30E0C901880F991F880F991F64
:1003C000820F931FFC01E05FFE4F81E080838981F3
:1003D000282F30E0C901880F991F880F991F820FBD
:1003E000931FFC01ED5EFE4F0190F081E02D099519
:1003F0000FC08981282F30E0C901880F991F880F0D
:10040000991F820F931FFC01E05FFE4F83E0808302
:1004100089818F5F898390910C018981981708F0F9
:100420009DCF10920B0180E00E94E03291CF8AE9CB
:100430008A838A810F900F90CF91DF910895DF9387
:10044000CF9300D0CDB7DEB78BE090E00E9464057B
:100450009A83898389819A81009749F0E981FA8199
:100460001182108289819A8102960E94E005898119
:100470009A810F900F90CF91DF910895DF93CF93E2
:10048000CDB7DEB760970FB6F894DEBF0FBECDBF15
:100490009A8789877C876B875E874D87388B2F8704
:1004A00089859A859C838B8319820E948E1CEB819F
:1004B000FC818081918198878F8389859A852B859E
:1004C0003C85B9010E9415042F8138858B859C8558
:1004D000282B392B8D859E85282339238D859E8554
:1004E00028173907C9F42F8138858B859C85822B85
:1004F000932B9E838D83EB81FC81208131818D85BF
:100500009E858095909582239323EB81FC81918336
:100510008083188A1F861EC08F859889009791F066
:100520008B819C81BC016E5F7F4F8D859E859C0178
:1005300035604F855889CB01B9010E94CE1E1E82BD
:100540001D8208C0EB81FC81808191819E838D8317
:1005500081E089830E949A1C8A838F8598890097FD
:1005600009F43AC08A81882311F40E94D5080E94B8
:1005700001219E838D838D819E8180709270009772
:1005800031F50FB6F8940F92EB81FC818081918157
:100590009E838D832D813E818D859E8528233923E1
:1005A0008D859E852817390771F4EB81FC812081A8
:1005B00031818D859E858095909582239323EB8153
:1005C000FC81918380830F900FBE81E089838D81B0
:1005D0009E8190709E838D838D819E8160960FB6E3
:1005E000F894DEBF0FBECDBFCF91DF9108950F937A
:1005F0001F93DF93CF93CDB7DEB763970FB6F89411
:10060000DEBF0FBECDBF9D878C877F876E87488BEF
:10061000298B1B8B0A8B8C859D859B878A871F82E4
:100620001E821B820E948E1CEA85FB85808191813F
:100630009A83898389819A812E853F85B901498969
:100640000E9432058D838D818823C1F089819A8132
:10065000998788871B8A1A8A88898823E9F1EA851D
:10066000FB85208131818E859F85809590958223A1
:100670009323EA85FB85918380832EC08A899B8999
:10068000009739F489819A819987888781E08B83E3
:1006900023C08889882329F08E819F8191609F8360
:1006A0008E838989882329F08E819F8194609F831E
:1006B0008E838A859B85BC016E5F7F4F2E853F852B
:1006C0008E819F81282B392B4A895B89CB01B90107
:1006D0000E94CE1E198618860E949A1C8C838A89D5
:1006E0009B89009709F43CC08C81882311F40E94F7
:1006F000D5080E940121998788878885998580700F
:100700009270009741F50FB6F8940F92EA85FB8539
:100710008081918199878887888599852E853F85F5
:10072000B90149890E943205882389F08889882384
:1007300071F0EA85FB85208131818E859F858095CA
:10074000909582239323EA85FB859183808381E0C2
:100750008B830F900FBE88859985907099878887C5
:100760008885998563960FB6F894DEBF0FBECDBF1E
:10077000CF91DF911F910F910895DF93CF93CDB764
:10078000DEB728970FB6F894DEBF0FBECDBF9E83AD
:100790008D8378876F838D819E819C838B830FB639
:1007A000F8940F92EB81FC81808191819A838983F7
:1007B000EB81FC81208131818F8198858095909596
:1007C00082239323EB81FC81918380830F900FBE62
:1007D00089819A8128960FB6F894DEBF0FBECDBFEF
:1007E000CF91DF910895DF93CF93CDB7DEB72797F1
:1007F0000FB6F894DEBF0FBECDBF9F838E838E8170
:100800009F819C838B831D82EB81FC818081918100
:100810009A83898389819A8127960FB6F894DEBFDF
:100820000FBECDBFCF91DF910895DF93CF93CDB7AA
:10083000DEB765970FB6F894DEBF0FBECDBF9B8BBA
:100840008A8B7D8B6C8B198618868A899B899B8302
:100850008A8319828A819B8102969B878A878A85EF
:100860009B8503969D878C870E948E1CEA85FB855D
:1008700085819681998B888BEA81FB8120813181EA
:100880008C899D89822B932BEA81FB8191838083C4
:1008900059C0E889F989828193819F878E87E88989
:1008A000F989808191819F838E8319828E819F81B6
:1008B00080709D838C838E819F8190709F838E83B7
:1008C0008C819D8180709470009769F4EA81FB812E
:1008D000208131818E819F8182239323009791F023
:1008E00081E089830FC0EA81FB81208131818E8183
:1008F0009F81282339238E819F812817390711F47E
:1009000081E0898389818823C9F08C819D818070F1
:100910009170009741F0888599852E813F81822BC7
:10092000932B99878887EA81FB81808191819C0143
:10093000326088899989B9010E94691F8E859F85D7
:10094000998B888B288939898C859D85281739074B
:1009500009F09FCFEA81FB812081318188859985CB
:100960008095909582239323EA81FB8191838083F4
:100970000E949A1CEA81FB818081918165960FB665
:10098000F894DEBF0FBECDBFCF91DF910895DF9306
:10099000CF9300D000D000D0CDB7DEB79E838D833B
:1009A0008D819E819C838B838B819C8102969A830F
:1009B00089830E948E1C08C0E981FA818581968115
:1009C00060E072E00E94691FE981FA8180818823DA
:1009D00099F78B819C810E94BA050E949A1C2696E9
:1009E0000FB6F894DEBF0FBECDBFCF91DF91089553
:1009F000DF93CF9300D000D000D0CDB7DEB79A837D
:100A000089834B835C836D837E8389819A812B816B
:100A10003C81B9010E94150426960FB6F894DEBFFA
:100A20000FBECDBFCF91DF910895DF93CF9300D05C
:100A300000D000D0CDB7DEB79A8389834B835C8327
:100A40006D837E8389819A812B813C81B9010E94CB
:100A5000BD0326960FB6F894DEBF0FBECDBFCF9173
:100A6000DF910895DF93CF9300D000D000D0CDB7B1
:100A7000DEB79B838A837D836C834E8319828E814C
:100A8000882359F48A819B812C813D818223932381
:100A9000009781F081E089830DC02A813B818C81A0
:100AA0009D81282339238C819D812817390711F4D2
:100AB00081E08983898126960FB6F894DEBF0FBE48
:100AC000CDBFCF91DF910895DF93CF9300D000D0B9
:100AD000CDB7DEB79C838B831A8219820E948E1C4D
:100AE0008091760190917701009731F489E791E048
:100AF00090937701809376018091740190917501B4
:100B00002B813C81820F931F25E08B3D920738F5A6
:100B100020917401309175018B819C81280F391FC0
:100B2000809174019091750182179307C0F4209110
:100B30007601309177018091740190917501820F57
:100B4000931F9A83898320917401309175018B8161
:100B50009C81820F931F90937501809374010E9472
:100B60009A1C89819A810F900F900F900F90CF91CE
:100B7000DF910895DF93CF9300D0CDB7DEB79A838E
:100B800089830F900F90CF91DF910895DF93CF93DA
:100B9000CDB7DEB71092750110927401CF91DF913D
:100BA0000895DF93CF93CDB7DEB7209174013091D4
:100BB00075018BED95E0821B930BCF91DF9108952A
:100BC000DF93CF9300D0CDB7DEB79A838983898135
:100BD0009A810396E981FA8192838183E981FA817E
:100BE0008FEF9FEF9483838389819A810396E981B4
:100BF000FA819683858389819A810396E981FA81B6
:100C000090878783E981FA8110820F900F90CF91AE
:100C1000DF910895DF93CF9300D0CDB7DEB79A83ED
:100C20008983E981FA81118610860F900F90CF9108
:100C3000DF910895DF93CF9300D000D000D0CDB7DF
:100C4000DEB79C838B837E836D83EB81FC81818106
:100C500092819A838983ED81FE8189819A81938330
:100C60008283E981FA8184819581ED81FE8195837A
:100C70008483E981FA810480F581E02D8D819E8154
:100C800093838283E981FA818D819E819583848318
:100C9000ED81FE818B819C8191878087EB81FC8136
:100CA00080818F5FEB81FC81808326960FB6F8945C
:100CB000DEBF0FBECDBFCF91DF910895DF93CF93FD
:100CC000CDB7DEB728970FB6F894DEBF0FBECDBF05
:100CD0009E838D8378876F83EF81F88580819181F2
:100CE0009A83898389819A812FEF8F3F920739F404
:100CF000ED81FE81878190859C838B8318C08D81D7
:100D00009E8103969C838B8306C0EB81FC8182814C
:100D100093819C838B83EB81FC810280F381E02DA6
:100D20002081318189819A818217930770F7EB8145
:100D3000FC8182819381EF81F88593838283EF81A7
:100D4000F8850280F381E02D8F81988595838483D7
:100D5000EF81F8858B819C8195838483EB81FC8175
:100D60008F81988593838283EF81F8858D819E8121
:100D700091878087ED81FE8180818F5FED81FE818B
:100D8000808328960FB6F894DEBF0FBECDBFCF91FB
:100D9000DF910895DF93CF9300D000D0CDB7DEB7B9
:100DA0009C838B83EB81FC81808591859A838983E9
:100DB000EB81FC81A281B381EB81FC8184819581EF
:100DC00015969C938E931497EB81FC81A481B58139
:100DD000EB81FC818281938113969C938E93129771
:100DE000E981FA81218132818B819C812817390721
:100DF00041F4EB81FC8184819581E981FA819283C0
:100E00008183EB81FC8111861086E981FA818081E2
:100E10008150E981FA818083E981FA8180810F9094
:100E20000F900F900F90CF91DF910895DF93CF93A4
:100E3000CDB7DEB728970FB6F894DEBF0FBECDBF93
:100E40009C838B837E836D8358874F83EB81FC81EA
:100E500081E180838B819C8101979C838B83EB81D3
:100E6000FC8182E280838B819C8101979C838B83B0
:100E7000EB81FC8183E380838B819C8101979C8340
:100E80008B838D819E819A8389838981EB81FC810B
:100E900080838B819C8101979C838B8389819A813C
:100EA000892F99279A8389838981EB81FC818083AB
:100EB0008B819C8101979C838B83EB81FC811082C9
:100EC0008B819C8101979C838B83EB81FC8180E8E3
:100ED00080838B819C8101979C838B83EB81FC8138
:100EE00010828B819C8101979C838B83EB81FC8199
:100EF00082E080838B819C8101979C838B83EB8133
:100F0000FC8183E080838B819C8101979C838B8310
:100F1000EB81FC8184E080838B819C8101979C83A1
:100F20008B83EB81FC8185E080838B819C810197A1
:100F30009C838B83EB81FC8186E080838B819C8109
:100F400001979C838B83EB81FC8187E080838B817D
:100F50009C8101979C838B83EB81FC8188E080835B
:100F60008B819C8101979C838B83EB81FC8189E041
:100F700080838B819C8101979C838B83EB81FC8197
:100F800080E180838B819C8101979C838B83EB81A3
:100F9000FC8181E180838B819C8101979C838B8381
:100FA000EB81FC8182E180838B819C8101979C8312
:100FB0008B83EB81FC8183E180838B819C81019712
:100FC0009C838B83EB81FC8184E180838B819C817A
:100FD00001979C838B83EB81FC8185E180838B81EE
:100FE0009C8101979C838B83EB81FC8186E18083CC
:100FF0008B819C8101979C838B83EB81FC8187E1B2
:1010000080838B819C8101979C838B83EB81FC8106
:1010100088E180838B819C8101979C838B83EB810A
:10102000FC8189E180838B819C8101979C838B83E8
:10103000EB81FC8180E280838B819C8101979C8382
:101040008B83EB81FC8181E280838B819C81019782
:101050009C838B83EB81FC8182E280838B819C81EA
:1010600001979C838B83EB81FC8183E280838B815E
:101070009C8101979C838B838F8198859A83898338
:101080008981EB81FC8180838B819C8101979C838A
:101090008B8389819A81892F99279A838983898172
:1010A000EB81FC8180838B819C8101979C838B8366
:1010B000EB81FC8186E280838B819C8101979C83FC
:1010C0008B83EB81FC8187E280838B819C810197FC
:1010D0009C838B83EB81FC8188E280838B819C8164
:1010E00001979C838B83EB81FC8189E280838B81D8
:1010F0009C8101979C838B83EB81FC8180E38083BF
:101100008B819C8101979C838B83EB81FC8181E3A4
:1011100080838B819C8101979C838B838B819C81B5
:1011200028960FB6F894DEBF0FBECDBFCF91DF91EA
:101130000895DF93CF93CDB7DEB70E948B09A091BE
:101140005407B0915507CD91CDBFDD91DEBFFF9122
:10115000EF91DF91CF91BF91AF919F918F917F914F
:101160006F915F914F913F912F911F910F91FF9040
:10117000EF90DF90CF90BF90AF909F908F907F9037
:101180006F905F904F903F902F901F900F900FBEE9
:101190000F90089581E0CF91DF910895DF93CF9371
:1011A000CDB7DEB7CF91DF9108950F920FB6F894C7
:1011B0000F921F9211242F923F924F925F926F9243
:1011C0007F928F929F92AF92BF92CF92DF92EF92D7
:1011D000FF920F931F932F933F934F935F936F93C0
:1011E0007F938F939F93AF93BF93CF93DF93EF93AF
:1011F000FF93A0915407B09155070DB60D920EB60E
:101200000D920E943F1EA0915407B0915507CD91B9
:10121000CDBFDD91DEBFFF91EF91DF91CF91BF9107
:10122000AF919F918F917F916F915F914F913F917E
:101230002F911F910F91FF90EF90DF90CF90BF9073
:10124000AF909F908F907F906F905F904F903F9066
:101250002F901F900F900FBE0F9008950F920FB612
:10126000F8940F921F9211242F923F924F925F9207
:101270006F927F928F929F92AF92BF92CF92DF92A6
:10128000EF92FF920F931F932F933F934F935F9390
:101290006F937F938F939F93AF93BF93CF93DF937E
:1012A000EF93FF93A0915407B09155070DB60D929F
:1012B0000EB60D920E94861D882311F00E943F1EDB
:1012C000A0915407B0915507CD91CDBFDD91DEBF00
:1012D000FF91EF91DF91CF91BF91AF919F918F914E
:1012E0007F916F915F914F913F912F911F910F913E
:1012F000FF90EF90DF90CF90BF90AF909F908F9036
:101300007F906F905F904F903F902F901F900F9025
:101310000FBE0F900895DF93CF9300D000D000D080
:10132000CDB7DEB780E89EE3A0E0B0E08B839C837E
:10133000AD83BE838B819C81AD81BE81689415F89D
:10134000B695A795979587951694D1F78B839C832F
:10135000AD83BE838B819C81AD81BE810197A10944
:10136000B1098B839C83AD83BE838B8189838B8101
:101370009C81AD81BE81892F9A2FAB2FBB278B8398
:101380009C83AD83BE838B818A83EBE4F0E08A810A
:101390008083EAE4F0E0898180838BE08983EEE456
:1013A000F0E089818083E9E5F0E0808189838981AB
:1013B00080618983E9E5F0E08981808326960FB614
:1013C000F894DEBF0FBECDBFCF91DF9108951F927D
:1013D0000F920FB60F9211242F933F934F935F9369
:1013E0006F937F938F939F93AF93BF93EF93FF93ED
:1013F000DF93CF93CDB7DEB70E94861DCF91DF91EB
:10140000FF91EF91BF91AF919F918F917F916F91DC
:101410005F914F913F912F910F900FBE0F901F90B2
:101420001895DF93CF9300D000D00F92CDB7DEB7E1
:101430009C838B836D838B819C819A8389830FB678
:10144000F8940F92E981FA8140815181E981FA8112
:10145000838D282F30E0E981FA81848D882F90E0F8
:10146000BC01269FC001279F900D369F900D11242F
:10147000840F951FE981FA8195838483E981FA813C
:10148000128EE981FA8180819181E981FA819383C9
:101490008283E981FA8140815181E981FA81838DDA
:1014A000882F90E09C0121503040E981FA81848DA1
:1014B000882F90E0BC01269FC001279F900D369F8A
:1014C000900D1124840F951FE981FA8197838683FB
:1014D000E981FA818FEF858FE981FA818FEF868F1D
:1014E0008D81882359F4E981FA818085882381F0F0
:1014F00089819A8108960E94FE1E0AC089819A817C
:1015000008960E94E00589819A8141960E94E00533
:101510000F900FBE81E00F900F900F900F900F90E3
:10152000CF91DF9108950F931F93DF93CF93CDB7A2
:10153000DEB729970FB6F894DEBF0FBECDBF8F83FD
:10154000688749878885882319F41C821B8210C00C
:101550008F81282F30E08885882F90E0AC01249F70
:10156000C001259F900D349F900D11249C838B8387
:101570008B819C814F960E9464059E838D838D8113
:101580009E810097A1F08D819E819A8389838981B4
:101590009A814F969A83898329813A81ED81FE81D0
:1015A0008F816885A90129858F010E94E40A8D81B8
:1015B0009E8129960FB6F894DEBF0FBECDBFCF91A6
:1015C000DF911F910F9108950F931F93DF93CF9396
:1015D000CDB7DEB727970FB6F894DEBF0FBECDBFED
:1015E00089836A835C834B832D831F830E838A8167
:1015F000882339F48E819F81EE81FF8191838083DE
:1016000006C08B819C81EE81FF8191838083EE8176
:10161000FF818981838FEE81FF818A81848F8E8112
:101620009F8161E00E94110A27960FB6F894DEBFF1
:101630000FBECDBFCF91DF911F910F910895DF9322
:10164000CF93CDB7DEB72F970FB6F894DEBF0FBE9E
:10165000CDBF998788877B876A875D874C872E8770
:101660001C82888599859A8389830FB6F8940F9296
:10167000E981FA81928DE981FA81838D981718F0BA
:101680008E858230C1F489819A812A853B85B90192
:101690004E850E945B0F8B83E981FA8181898823C3
:1016A00029F089819A8141960E94FE1E0F900FBEFB
:1016B00081E08F875CC08C859D85009721F40F9019
:1016C0000FBE1F8654C08C81882331F4CE0105964D
:1016D0000E94E41F81E08C830F900FBE0E948E1C3D
:1016E0000FB6F8940F92E981FA81858D8F3F19F436
:1016F000E981FA81158EE981FA81868D8F3F19F48F
:10170000E981FA81168E0F900FBECE0105969E01DB
:10171000245F3F4FB9010E94FD1F882309F589818D
:101720009A810E94D7108823A1F089819A81089616
:101730002C853D85B9010E94AC1E89819A810E9449
:1017400048100E949A1C882309F08FCF0E94D50868
:101750008CCF89819A810E9448100E949A1C85CF63
:1017600089819A810E9448100E949A1C1F868F8549
:101770002F960FB6F894DEBF0FBECDBFCF91DF918D
:101780000895DF93CF93CDB7DEB72C970FB6F894BB
:10179000DEBF0FBECDBF9F838E83798768875B874F
:1017A0004A872C878E819F819B838A831C82EA8152
:1017B000FB81928DEA81FB81838D981718F08C85CF
:1017C000823061F5EA81FB81868D89838A819B81E4
:1017D00028853985B9014C850E945B0F89818F3F2F
:1017E000A9F4EA81FB8181898823A9F08A819B8100
:1017F00041960E94FE1E882371F08A859B85009782
:1018000051F0EA85FB8581E0808305C089818F5F87
:10181000EA81FB81868F81E08D8301C01D828D81ED
:101820002C960FB6F894DEBF0FBECDBFCF91DF91DF
:101830000895DF93CF93CDB7DEB72A970FB6F8940C
:10184000DEBF0FBECDBF98878F837A8769878F8170
:1018500098859C838B831D82EB81FC81828D8A839A
:10186000EB81FC81938D8A81891748F5EB81FC819E
:10187000868D89838A818F5FEB81FC81828F89814C
:101880008F3FA9F4EB81FC8181898823A9F08B81AA
:101890009C8141960E94FE1E882371F089859A855D
:1018A000009751F0E985FA8581E0808305C0898140
:1018B0008F5FEB81FC81868F81E08E8301C01E8269
:1018C0008E812A960FB6F894DEBF0FBECDBFCF91A2
:1018D000DF910895DF93CF93CDB7DEB72E970FB684
:1018E000F894DEBF0FBECDBF998788877B876A8754
:1018F0005D874C871C82888599859B838A830FB678
:10190000F8940F92EA81FB81828D898389818823F3
:10191000D9F08A819B812A853B85B9010E940110FB
:1019200089818150EA81FB81828FEA81FB818085F8
:10193000882329F08A819B8108960E94FE1E0F90C1
:101940000FBE81E08E8763C08C859D85009721F452
:101950000F900FBE1E865BC08C81882331F4CE01B0
:1019600005960E94E41F81E08C830F900FBE0E94B9
:101970008E1C0FB6F8940F92EA81FB81858D8F3F04
:1019800019F4EA81FB81158EEA81FB81868D8F3FF8
:1019900019F4EA81FB81168E0F900FBECE010596D9
:1019A0009E01245F3F4FB9010E94FD1F882309F566
:1019B0008A819B810E949B108823A1F08A819B8150
:1019C00041962C853D85B9010E94AC1E8A819B8180
:1019D0000E9448100E949A1C882309F090CF0E9410
:1019E000D5088DCF8A819B810E9448100E949A1C45
:1019F00086CF8A819B810E9448100E949A1C8A810E
:101A00009B810E949B10882309F479CF1E868E85C6
:101A10002E960FB6F894DEBF0FBECDBFCF91DF91EB
:101A20000895DF93CF93CDB7DEB72C970FB6F89418
:101A3000DEBF0FBECDBF998788877B876A871C82F0
:101A4000888599859B838A830FB6F8940F92EA81E3
:101A5000FB81828D898389818823A1F089818150CE
:101A6000EA81FB81828FEA81FB818085882329F0CE
:101A70008A819B8108960E94FE1E0F900FBE81E016
:101A80008C8763C08A859B85009721F40F900FBED9
:101A90001C865BC08C81882331F4CE0105960E94A0
:101AA000E41F81E08C830F900FBE0E948E1C0FB646
:101AB000F8940F92EA81FB81858D8F3F19F4EA81BA
:101AC000FB81158EEA81FB81868D8F3F19F4EA81B7
:101AD000FB81168E0F900FBECE0105969E01265FEC
:101AE0003F4FB9010E94FD1F882309F58A819B8120
:101AF0000E949B108823A1F08A819B8141962A85B0
:101B00003B85B9010E94AC1E8A819B810E944810CE
:101B10000E949A1C882309F097CF0E94D50894CF81
:101B20008A819B810E9448100E949A1C8DCF8A81D5
:101B30009B810E9448100E949A1C8A819B810E946E
:101B40009B10882309F480CF1C868C852C960FB6B9
:101B5000F894DEBF0FBECDBFCF91DF910895DF9324
:101B6000CF93CDB7DEB760970FB6F894DEBF0FBE48
:101B7000CDBF9B878A877D876C875F874E871E8254
:101B80008A859B859B838A830FB6F8940F92EA819E
:101B9000FB81828D89838981882311F1EA81FB8110
:101BA000868197819D838C838A819B812C853D854D
:101BB000B9010E940110EA81FB818C819D8197838C
:101BC0008683EA81FB818189882329F08A819B8130
:101BD00041960E94FE1E0F900FBE81E0888B63C06D
:101BE0008E859F85009721F40F900FBE188A5BC0E9
:101BF0008E81882331F4CE0107960E94E41F81E094
:101C00008E830F900FBE0E948E1C0FB6F8940F9219
:101C1000EA81FB81858D8F3F19F4EA81FB81158E66
:101C2000EA81FB81868D8F3F19F4EA81FB81168E54
:101C30000F900FBECE0107969E01225F3F4FB90164
:101C40000E94FD1F882309F58A819B810E949B10B9
:101C50008823A1F08A819B8141962E853F85B90119
:101C60000E94AC1E8A819B810E9448100E949A1C8F
:101C7000882309F089CF0E94D50886CF8A819B816D
:101C80000E9448100E949A1C7FCF8A819B810E94EB
:101C900048100E949A1C8A819B810E949B10882375
:101CA00009F472CF188A888960960FB6F894DEBF5F
:101CB0000FBECDBFCF91DF910895DF93CF93CDB706
:101CC000DEB72C970FB6F894DEBF0FBECDBF988756
:101CD0008F837A8769875C874B878F8198859C8300
:101CE0008B831D82EB81FC81828D8A838A8188238C
:101CF00081F1EB81FC81858D89838B819C81298594
:101D00003A85B9010E9401108A818150EB81FC81E2
:101D1000828F89818F3FA9F4EB81FC8180858823A4
:101D2000A9F08B819C8108960E94FE1E882371F089
:101D30008B859C85009751F0EB85FC8581E0808345
:101D400005C089818F5FEB81FC81858F81E08E8367
:101D500001C01E828E812C960FB6F894DEBF0FBE96
:101D6000CDBFCF91DF910895DF93CF93CDB7DEB78D
:101D70002A970FB6F894DEBF0FBECDBF98878F832A
:101D80007A8769878F8198859A8389831D82E98103
:101D9000FA81828D8823B1F0E981FA818681978169
:101DA0009C838B8389819A8129853A85B9010E9418
:101DB0000110E981FA818B819C819783868381E080
:101DC0008E8301C01E828E812A960FB6F894DEBFE4
:101DD0000FBECDBFCF91DF910895DF93CF9300D099
:101DE0000F92CDB7DEB79B838A830FB6F8940F921C
:101DF000EA81FB81828D89830F900FBE89810F90CC
:101E00000F900F90CF91DF910895DF93CF9300D083
:101E100000D00F92CDB7DEB79D838C838C819D81DE
:101E20009A8389830FB6F8940F92E981FA81938D92
:101E3000E981FA81828D292F281B822F8B830F90B5
:101E40000FBE8B810F900F900F900F900F90CF913E
:101E5000DF910895DF93CF9300D000D00F92CDB7DC
:101E6000DEB79D838C838C819D819A838983E981F0
:101E7000FA81828D8B838B810F900F900F900F9042
:101E80000F90CF91DF910895DF93CF9300D000D0D2
:101E9000CDB7DEB79C838B838B819C819A838983AA
:101EA00089819A810E94BA050F900F900F900F9030
:101EB000CF91DF910895DF93CF93CDB7DEB727970A
:101EC0000FB6F894DEBF0FBECDBF9C838B837E839D
:101ED0006D834F831A82EB81FC81828D8983EB8134
:101EE000FC81848D882309F47DC08F81882399F536
:101EF000EB81FC8162817381EB81FC81848D482FB1
:101F000050E02D813E81CB01B9010E94613CEB8103
:101F1000FC8122813381EB81FC81848D882F90E0CC
:101F2000820F931FEB81FC8193838283EB81FC8181
:101F300022813381EB81FC818481958128173907C7
:101F400008F450C0EB81FC8180819181EB81FC81A0
:101F50009383828347C0EB81FC8166817781EB812B
:101F6000FC81848D482F50E02D813E81CB01B90149
:101F70000E94613CEB81FC8126813781EB81FC81F1
:101F8000848D882F90E0909581959F4F820F931FAD
:101F9000EB81FC8197838683EB81FC8126813781ED
:101FA000EB81FC81808191812817390790F4EB81C6
:101FB000FC8124813581EB81FC81848D882F90E028
:101FC000909581959F4F820F931FEB81FC819783A2
:101FD00086838F81823031F48981882319F0898149
:101FE0008150898389818F5FEB81FC81828F8A8117
:101FF00027960FB6F894DEBF0FBECDBFCF91DF910D
:102000000895DF93CF9300D000D0CDB7DEB79A8389
:1020100089837C836B83E981FA81848D882389F1AC
:10202000E981FA8126813781E981FA81848D882FBF
:1020300090E0820F931FE981FA8197838683E9817B
:10204000FA8126813781E981FA8184819581281777
:10205000390740F0E981FA8180819181E981FA8133
:1020600097838683E981FA8146815781E981FA81E4
:10207000848D282F30E08B819C81BA01A9010E94B8
:10208000613C0F900F900F900F90CF91DF910895CA
:10209000DF93CF9300D000D0CDB7DEB79C838B8386
:1020A0000FB6F8940F92EB81FC81868D8A8311C064
:1020B000EB81FC818189882379F08B819C81419619
:1020C0000E94FE1E882311F00E946A208A8181509E
:1020D0008A838A81181664F3EB81FC818FEF868FE7
:1020E0000F900FBE0FB6F8940F92EB81FC81858D97
:1020F000898311C0EB81FC818085882379F08B81F5
:102100009C8108960E94FE1E882311F00E946A207E
:102110008981815089838981181664F3EB81FC8160
:102120008FEF858F0F900FBE0F900F900F900F9035
:10213000CF91DF910895DF93CF9300D00F92CDB769
:10214000DEB79B838A830FB6F8940F92EA81FB81F6
:10215000828D882319F481E0898301C019820F9050
:102160000FBE89810F900F900F90CF91DF9108954E
:10217000DF93CF9300D000D00F92CDB7DEB79D8311
:102180008C838C819D819A838983E981FA81828DF8
:10219000882319F481E08B8301C01B828B810F900F
:1021A0000F900F900F900F90CF91DF910895DF93D4
:1021B000CF9300D00F92CDB7DEB79B838A830FB643
:1021C000F8940F92EA81FB81928DEA81FB81838DE5
:1021D000981719F481E0898301C019820F900FBE0E
:1021E00089810F900F900F90CF91DF910895DF9329
:1021F000CF9300D000D00F92CDB7DEB79D838C83F4
:102200008C819D819A838983E981FA81928DE9810C
:10221000FA81838D981719F481E08B8301C01B82AA
:102220008B810F900F900F900F900F90CF91DF91B7
:1022300008950F93DF93CF93CDB7DEB728970FB6EE
:10224000F894DEBF0FBECDBF9D838C837F836E83EA
:1022500048878885813019F481E0898301C019821B
:102260008E819F81009721F481E090E09F838E838F
:102270008C819D8101969D838C838C819D810F969D
:102280000E9464059B838A838A819B81009789F0E1
:102290006A817B818A819B819C01215F3F4F4C81B8
:1022A0005D81EE81FF81CB01B9019F0109810E940F
:1022B00071188A819B8128960FB6F894DEBF0FBEF5
:1022C000CDBFCF91DF910F910895DF93CF9300D0D1
:1022D00000D0CDB7DEB79C838B838B819C819A83A2
:1022E0008983E981FA818685882F90E082709070D9
:1022F000009729F489819A810E94BA0508C08981D2
:102300009A8160E070E04FE050E00E946A3C0F90DC
:102310000F900F900F90CF91DF9108950F93DF935F
:10232000CF9300D000D00F92CDB7DEB79D838C83C2
:102330008C819D819B838A8319820FB6F8940F92BA
:10234000EA81FB81808591850097F1F4EA81FB8128
:10235000828593850097C1F4EA81FB8124853585C8
:10236000EA81FB8144815581EA81FB81A681B781A5
:10237000EA81FB81E6858A819B81B9019D010E2F4F
:102380000E94711881E089830F900FBE89810F90A0
:102390000F900F900F900F90CF91DF910F910895B4
:1023A000DF93CF93CDB7DEB727970FB6F894DEBF94
:1023B0000FBECDBF9D838C837F836E838C819D8177
:1023C0009B838A838E819F81009721F481E090E036
:1023D0009F838E83EA81FB81248135818E819F8159
:1023E0002817390748F0EA81FB818E819F81978306
:1023F000868381E0898301C01982898127960FB67F
:10240000F894DEBF0FBECDBFCF91DF910895DF936B
:10241000CF9300D000D000D0CDB7DEB79E838D83A0
:102420008D819E819C838B83EB81FC81248135810E
:10243000EB81FC8180819181820F931F9A83898334
:10244000EB81FC812281338189819A81821B930BEC
:102450009A83898389819A8101979A838983EB8101
:10246000FC812481358189819A818217930750F0FC
:10247000EB81FC812481358189819A81821B930BB8
:102480009A83898389819A8126960FB6F894DEBF54
:102490000FBECDBFCF91DF910895DF93CF9300D0D2
:1024A00000D000D0CDB7DEB79E838D838D819E8115
:1024B0009C838B838B819C810E9437189A838983AC
:1024C00089819A8126960FB6F894DEBF0FBECDBFE4
:1024D000CF91DF910895EF92FF920F931F93DF93B7
:1024E000CF93CDB7DEB763970FB6F894DEBF0FBEBC
:1024F000CDBF9D878C877F876E87598B488B3B8BA1
:102500002A8B8C859D8598878F831C821B82888966
:1025100099899A838983EF81F8858685882F90E051
:1025200081709070882329F089819A8102969A831C
:1025300089838A899B89009709F440C0CE01099656
:102540000E94C61F0FB6F8940F928F8198850E9443
:1025500007129C838B832B813C8189819A81281768
:10256000390750F580E090E00E948E240E94EF2011
:10257000EF81F885938782870F900FBEEA89FB89E8
:1025800060E070E080E090E020E030E040E050E08B
:1025900000E010E07F010E949F21EF81F885138603
:1025A0001286CE0109969E012E5E3F4FB9010E9410
:1025B000FD1F882339F202C00F900FBE8B819C81D2
:1025C000009731F48F8198850E9407129C838B833A
:1025D0008F8198852E853F8548895989EB81FC81BB
:1025E000A981BA81B9019F018D010E94B0139E8318
:1025F0008D838D819E81009739F18F8198850E940E
:1026000037189C01EF81F885868197812817390753
:10261000D8F00E948E1CEF81F88580859185009707
:1026200089F0EF81F8858085918540E050E060E099
:1026300070E020E000E010E00E943B22EF81F8858E
:10264000118610860E949A1C8D819E8163960FB61A
:10265000F894DEBF0FBECDBFCF91DF911F910F91D8
:10266000FF90EF900895EF92FF920F931F93DF93E7
:10267000CF93CDB7DEB761970FB6F894DEBF0FBE2C
:10268000CDBF9B878A877D876C875F874E87398B15
:10269000288B8A859B85998788878E859F859B83D4
:1026A0008A83E885F9858685882F90E0817090700F
:1026B000882329F08A819B8102969B838A8388855F
:1026C00099850E9407129D838C83888599852C8526
:1026D0003D854E855F85EC81FD81AA81BB81B90175
:1026E0009F018D010E94B0139F838E838E819F81F5
:1026F000009739F1888599850E9437189C01E885F3
:10270000F9858681978128173907D8F01982E885DD
:10271000F985808591850097A1F0E885F985808508
:102720009185E889F98940E050E060E070E020E0C0
:1027300000E010E07F010E941023E885F9851186F2
:1027400010868E819F8161960FB6F894DEBF0FBE12
:10275000CDBFCF91DF911F910F91FF90EF90089522
:102760000F931F93DF93CF93CDB7DEB761970FB66B
:10277000F894DEBF0FBECDBF9D838C837F836E83B5
:10278000598748873B872A871D870C878A859B85C1
:10279000009711F41B8238C0EC81FD818685882F5B
:1027A00090E0817090700097D1F481E08B83288550
:1027B0003985398B288B8A859B859F878E872E85C7
:1027C0003F85888999898217930720F42889398958
:1027D0003F872E878E859F859987888715C02A8594
:1027E0003B858C859D852817390768F081E08B83B0
:1027F0009E01285F3F4F8C819D81B90142E050E0EE
:102800000E94FD1601C01B828B81882361F02E81FE
:102810003F81488559858C819D81B9010E94FD16B3
:102820009A83898302C01A82198289819A8161966A
:102830000FB6F894DEBF0FBECDBFCF91DF911F91D1
:102840000F910895EF92FF920F931F93DF93CF9311
:10285000CDB7DEB760970FB6F894DEBF0FBECDBF21
:102860009A8789877C876B875E874D87388B2F8710
:1028700089859A8598878F831E821D82EF81F885CE
:102880008685882F90E081709070882329F082E0FF
:1028900090E09A83898302C01A8219828F85988971
:1028A000009709F43DC00FB6F8940F928F81988578
:1028B0000E9437189C838B832B813C8189819A816C
:1028C0008217930750F080E090E00E948E240E94CF
:1028D000EF20EF81F885918780870F900FBE2B81C5
:1028E0003C8189819A818217930700F1EF85F889ED
:1028F00060E070E080E090E020E030E040E050E018
:1029000000E010E07F010E949F21EF81F885118691
:1029100010868F8198850E9437189C838B8306C010
:102920008F8198850E9437189C838B832B813C81F3
:1029300089819A818217930780F58F8198852B85ED
:102940003C854D855E85EB81FC81A981BA81B90109
:102950009F018D010E94A6159E838D838D819E818E
:102960000097D9F00E948E1CEF81F88582859385AF
:10297000009789F0EF81F8858285938540E050E0EB
:1029800060E070E020E000E010E00E943B22EF8178
:10299000F885138612860E949A1C8D819E8160960E
:1029A0000FB6F894DEBF0FBECDBFCF91DF911F9160
:1029B0000F91FF90EF900895DF93CF93CDB7DEB7DF
:1029C0002C970FB6F894DEBF0FBECDBF9C878B87C8
:1029D0008B859C8598878F83EF81F8858685882FE6
:1029E00090E081709070882361F18F8198850E94BA
:1029F00037189C838B838B819C8183309105F0F009
:102A0000EF81F885808191819A8389839E01275F78
:102A10003F4F8F819885EB81FC81B90142E050E006
:102A20009F010E948A1789859A859E838D83EF81F5
:102A3000F88589819A819183808305C01E821D82D9
:102A400002C01E821D828D819E812C960FB6F89445
:102A5000DEBF0FBECDBFCF91DF910895EF92FF9201
:102A60000F931F93DF93CF93CDB7DEB761970FB668
:102A7000F894DEBF0FBECDBF9B878A877D876C87AA
:102A80005F874E87398B288B8A859B8599878887B6
:102A90001F821E82E885F9858685882F90E08170E7
:102AA0009070882329F082E090E09B838A8302C0A3
:102AB0001B821A82888599850E9437189D838C8392
:102AC0002C813D818A819B818217930780F58885BF
:102AD00099852C853D854E855F85EC81FD81AA8198
:102AE000BB81B9019F018D010E94A6159F838E8332
:102AF0008E819F810097D9F01982E885F9858285BA
:102B000093850097A1F0E885F98582859385E8890A
:102B1000F98940E050E060E070E020E000E010E083
:102B20007F010E941023E885F985138612868E8125
:102B30009F8161960FB6F894DEBF0FBECDBFCF91D7
:102B4000DF911F910F91FF90EF9008950F931F93C6
:102B5000DF93CF93CDB7DEB762970FB6F894DEBFA1
:102B60000FBECDBF9A8789877C876B875E874D872D
:102B7000388B2F871A8B098B89899A89009791F155
:102B8000E985FA85808191819E838D83AE01495FBD
:102B90005F4F89859A8529893A89EF85F889BA0135
:102BA000A9019F010E948A178F8198859A83898342
:102BB0002F85388989899A89A901481B590BCA012F
:102BC000988B8F8729813A818D859E8582179307FF
:102BD00068F4E985FA858D819E81918380831A82CC
:102BE000198204C08D859E859A8389834B855C8577
:102BF00089859A8529813A81EF85F889BA01A901E9
:102C00009F010E948A179C838B838B819C81629693
:102C10000FB6F894DEBF0FBECDBFCF91DF911F91ED
:102C20000F910895DF93CF93CDB7DEB727970FB6F7
:102C3000F894DEBF0FBECDBF9F838E838E819F81B0
:102C40009D838C83EC81FD81808191819A8389832E
:102C5000EC81FD812281338189819A81281739078E
:102C600019F481E08B8301C01B828B8127960FB6FC
:102C7000F894DEBF0FBECDBFCF91DF910895DF93F3
:102C8000CF93CDB7DEB727970FB6F894DEBF0FBE50
:102C9000CDBF9F838E838E819F819A838983E981B3
:102CA000FA818685882F90E081709070882329F0C2
:102CB00082E090E09C838B8302C01C821B828E8109
:102CC0009F810E9407129C018B819C818217930730
:102CD00018F081E08D8301C01D828D8127960FB68B
:102CE000F894DEBF0FBECDBFCF91DF910895EF9274
:102CF000FF920F931F93DF93CF93CDB7DEB7289743
:102D00000FB6F894DEBF0FBECDBF9E838D8378874C
:102D10006F838D819E819C838B831982EB81FC81E3
:102D2000808591850097B9F0EB81FC818085918544
:102D3000EF81F88540E050E060E070E020E000E0E6
:102D400010E07F010E941023EB81FC811186108628
:102D500081E08A8301C01A828A8128960FB6F8948E
:102D6000DEBF0FBECDBFCF91DF911F910F91FF90BE
:102D7000EF900895EF92FF920F931F93DF93CF93FD
:102D8000CDB7DEB728970FB6F894DEBF0FBECDBF24
:102D90009E838D8378876F838D819E819C838B83B7
:102DA0001982EB81FC81828593850097B9F0EB81D4
:102DB000FC8182859385EF81F88540E050E060E0FA
:102DC00070E020E000E010E07F010E941023EB8122
:102DD000FC811386128681E08A8301C01A828A816F
:102DE00028960FB6F894DEBF0FBECDBFCF91DF910E
:102DF0001F910F91FF90EF900895DF93CF93CDB780
:102E0000DEB72E970FB6F894DEBF0FBECDBF9E8300
:102E10008D8378876F835A874987ED81FE81828110
:102E200093819C838B83ED81FE81248135818B810D
:102E30009C81A901481B590BCA0129853A853E8707
:102E40002D879C878B874B855C858D859E85841718
:102E5000950720F42D853E853C872B874B855C8527
:102E60005A834983ED81FE81248535858B819C8140
:102E7000820F931F2F81388549815A81B9010E94A1
:102E8000613C29853A8589819A8182179307B0F43C
:102E9000ED81FE81648575852F81388589819A81D0
:102EA000A901480F591F29853A8589819A81281BD4
:102EB000390BCB01BA01A9010E94613C2B813C81F5
:102EC00089859A85820F931F9C838B83ED81FE8178
:102ED000248135818B819C818217930750F0ED818D
:102EE000FE81248135818B819C81821B930B9C8385
:102EF0008B83ED81FE818B819C8193838283898585
:102F00009A852E960FB6F894DEBF0FBECDBFCF9137
:102F1000DF910895DF93CF93CDB7DEB766970FB6F5
:102F2000F894DEBF0FBECDBF98878F837A876987FD
:102F30005C874B873E872D872D853E853A8B298B75
:102F40004B855C85588B4F878F85988929893A896D
:102F50002817390720F449895A89588B4F878F855C
:102F600098899E838D838D819E81009709F474C01A
:102F7000EF81F885808191819A838983EF81F8853B
:102F80002481358189819A81A901481B590BCA0185
:102F90002D813E813E8B2D8B9C8B8B8B4B895C894D
:102FA0008D899E898417950720F42D893E893C8B55
:102FB0002B8B4B895C895C834B83EF81F88524855F
:102FC000358589819A81A901480F591F89859A857C
:102FD0002B813C81BA01A9010E94613C2D813E8177
:102FE0008B819C8182179307B0F429853A858B8168
:102FF0009C81B901680F791FEF81F885448555855B
:103000002D813E818B819C81281B390BCB01BA011C
:10301000A9010E94613C29813A818D819E81820FA4
:10302000931F9A838983EF81F88524813581898173
:103030009A818217930750F0EF81F88524813581BA
:1030400089819A81821B930B9A838983EF81F8850A
:1030500089819A81918380838D819E8166960FB646
:10306000F894DEBF0FBECDBFCF91DF910895DF93FF
:10307000CF9300D000D0CDB7DEB79C838B83EB819C
:10308000FC8124813581EB81FC8182819381820FD7
:10309000931F9A838983EB81FC812081318189810F
:1030A0009A81821B930B9A838983EB81FC81248113
:1030B000358189819A818217930750F0EB81FC81D9
:1030C0002481358189819A81821B930B9A8389831C
:1030D00089819A810F900F900F900F90CF91DF917F
:1030E00008950F93DF93CF93CDB7DEB729970FB62F
:1030F000F894DEBF0FBECDBF9A8389837C836B8338
:103100005E834D8338872F83098789819A8160E0A8
:1031100070E04FE050E00E946A3CE981FA818B81C7
:103120009C8195878487E981FA818D819E81958331
:103130008483E981FA818F81988597838683E981E9
:10314000FA818985868729960FB6F894DEBF0FBE6F
:10315000CDBFCF91DF910F9108958F929F92AF9243
:10316000BF92CF92DF92EF92FF920F931F93DF9364
:10317000CF93CDB7DEB760970FB6F894DEBF0FBE22
:10318000CDBF9F838E83798768875B874A873D871A
:103190002C870E87F88AEF868A859B850E946405B6
:1031A0009A83898389819A810097B1F086E290E0C1
:1031B0000E9464059D838C838C819D81009739F0EA
:1031C000EC81FD8189819A81908F878B07C08981ED
:1031D0009A810E94BA0502C01D821C828C819D8149
:1031E0000097E9F08A859B859C0140E050E08E8144
:1031F0009F8168857985EC85FD85AF85B889AC8030
:10320000BD808F01EE846D01882499240E942519C8
:103210008C819D810E94E11981E08B8302C08FEF38
:103220008B838B8160960FB6F894DEBF0FBECDBF47
:10323000CF91DF911F910F91FF90EF90DF90CF9092
:10324000BF90AF909F908F9008958F929F92AF9272
:10325000BF92CF92DF92EF920F931F93DF93CF93A2
:10326000CDB7DEB764970FB6F894DEBF0FBECDBF03
:103270009D838C837F836E83288739874A875B870A
:103280001D870C87EE86D88ACF86BA8AA98A9C8A3F
:103290008B8AE989FA892789308D888599850197F4
:1032A000820F931F9B838A838E819F81009751F1A8
:1032B000198221C08981482F50E08981282F30E070
:1032C0008E819F81FC01E20FF31F208189899A89F9
:1032D000840F951FFC01799620838981282F30E087
:1032E0008E819F81FC01E20FF31F8081882331F0E2
:1032F00089818F5F898389818830E0F2E989FA8941
:1033000010A203C0E989FA89118E8E85843010F0ED
:1033100083E08E87E989FA898E85868B89899A89E7
:1033200002960E940A0689899A890C960E940A06CA
:10333000E989FA8989899A89918780878E85282FDA
:1033400030E084E090E0821B930BE989FA8995874D
:103350008487E989FA8989899A89938B828BE9899B
:10336000FA8911A212A213A214A2E989FA8915A25C
:103370008A819B812C813D814C855D85B9010E94AC
:103380001607E989FA89918380838F859889009748
:1033900031F0EF85F88989899A89918380836496D1
:1033A0000FB6F894DEBF0FBECDBFCF91DF911F9156
:1033B0000F91EF90DF90CF90BF90AF909F908F9044
:1033C0000895DF93CF9300D000D0CDB7DEB79A83B6
:1033D00089830FB6F8940F92809156078F5F809380
:1033E00056078091540790915507009769F4898199
:1033F0009A819093550780935407809156078130A6
:10340000B9F40E94802014C080915A07882381F467
:10341000E0915407F09155079689E981FA818689F0
:10342000891730F089819A819093550780935407CA
:1034300080915E078F5F80935E07E981FA819689AC
:1034400080915907891728F4E981FA818689809348
:103450005907E981FA818689282F30E0C901880F50
:10346000991F880F991F880F991F820F931FAC0116
:103470004C59584F89819A819C012E5F3F4FCA0158
:10348000B9010E941A060F900FBE80915A07882337
:1034900021F080915407909155070F900F900F9055
:1034A0000F90CF91DF910895DF93CF93CDB7DEB723
:1034B0002A970FB6F894DEBF0FBECDBF98878F83D3
:1034C0007A8769871B820E948E1C80915707909192
:1034D00058079A838983EF81F88520813181898516
:1034E0009A85820F931F9E838D83EF81F8852081BB
:1034F000318189819A818217930798F4EF81F88549
:10350000208131818D819E8182179307E0F42D8186
:103510003E8189819A8182179307A8F481E08B8389
:1035200012C0EF81F885208131818D819E818217C3
:10353000930738F02D813E8189819A818217930704
:1035400010F481E08B83EF81F8858D819E819183DA
:1035500080838B81882349F08D819E8129813A81E6
:10356000821B930B60E00E94C8240E949A1C8C83EB
:103570008C81882311F40E94D5082A960FB6F894FE
:10358000DEBF0FBECDBFCF91DF910895DF93CF9304
:1035900000D00F92CDB7DEB79B838A8319828A81D0
:1035A0009B81009751F00E948E1C8A819B8160E074
:1035B0000E94C8240E949A1C89838981882311F45F
:1035C0000E94D5080F900F900F90CF91DF91089532
:1035D000DF93CF9300D000D000D0CDB7DEB79C836F
:1035E0008B830FB6F8940F928B819C81009739F4EE
:1035F00080915407909155079E838D8304C08B81E1
:103600009C819E838D838D819E819A83898389810C
:103610009A8102960E94CA06E981FA818489958975
:10362000009729F089819A810C960E94CA068981A7
:103630009A819C012E5F3F4F87EA97E0B9010E9473
:103640001A06E981FA8185A1813019F4E981FA81AC
:1036500015A20F900FBE80915A07882339F00FB63C
:10366000F8940F920E94C4200F900FBE209154072F
:103670003091550789819A8182179307A1F480912F
:103680005A07882319F00E94D5080DC09091A7070A
:1036900080915607981729F41092550710925407F5
:1036A00002C00E943F1E26960FB6F894DEBF0FBEE2
:1036B000CDBFCF91DF910895DF93CF9300D000D09D
:1036C0000F92CDB7DEB79D838C831B828C819D8149
:1036D0009A838983E981FA818285938527E0873AF5
:1036E000920781F4E981FA818489958927E08E39EE
:1036F000920741F0E981FA8184899589009711F454
:1037000081E08B838B810F900F900F900F900F9023
:10371000CF91DF910895DF93CF9300D000D000D0F8
:10372000CDB7DEB79C838B838B819C819A83898301
:10373000209154073091550789819A818217930708
:1037400009F43FC089819A81009709F43AC00FB605
:10375000F8940F9289819A810E945C1B882379F1E9
:1037600089819A8102960E94CA06E981FA81968926
:1037700080915907891728F4E981FA818689809315
:103780005907E981FA818689282F30E0C901880F1D
:10379000991F880F991F880F991F820F931FAC01E3
:1037A0004C59584F89819A819C012E5F3F4FCA0125
:1037B000B9010E941A0680915407909155070F9005
:1037C0000FBE26960FB6F894DEBF0FBECDBFCF91C9
:1037D000DF910895DF93CF9300D000D000D0CDB714
:1037E000DEB79E838D831C828D819E819B838A831D
:1037F00019828A819B810E945C1B882309F446C040
:10380000809163078823C1F5EA81FB819689E09165
:103810005407F09155078689981710F081E08C8342
:103820008A819B8102960E94CA06EA81FB81968961
:1038300080915907891728F4EA81FB818689809352
:103840005907EA81FB818689282F30E0C901880F5A
:10385000991F880F991F880F991F820F931FAC0122
:103860004C59584F8A819B819C012E5F3F4FCA0162
:10387000B9010E941A060AC08A819B819C01245FBB
:103880003F4F8EE997E0B9010E941A068C81269677
:103890000FB6F894DEBF0FBECDBFCF91DF91089574
:1038A000EF92FF920F93DF93CF930F92CDB7DEB7D6
:1038B00084E790E220E630E0E1E6F7E0B90145E593
:1038C00050E020E030E000E07F010E94AD188983E5
:1038D0008981813081F4F8948FEF9FEF9093600796
:1038E00080935F0781E080935A07109258071092E7
:1038F00057070E9499080F90CF91DF910F91FF9089
:10390000EF900895DF93CF93CDB7DEB7F894109280
:103910005A070E94CE08CF91DF910895DF93CF938D
:10392000CDB7DEB7809163078F5F80936307CF9138
:10393000DF910895DF93CF9300D000D00F92CDB7E1
:10394000DEB71C821B821A820FB6F8940F92809108
:10395000630781508093630780916307882309F090
:103960006DC080915607882309F468C045C0E09176
:10397000A307F091A407868197819C838B838B8119
:103980009C810C960E94CA068B819C8102960E94A3
:10399000CA06EB81FC81968980915907891728F422
:1039A000EB81FC81868980935907EB81FC818689B4
:1039B000282F30E0C901880F991F880F991F880FA1
:1039C000991F820F931FAC014C59584F8B819C81DA
:1039D0009C012E5F3F4FCA01B9010E941A06EB817C
:1039E000FC819689E0915407F091550786899817D4
:1039F00018F081E080935C0780919E07882309F08E
:103A0000B6CF8B819C81009711F00E94C4208091D9
:103A10005B0789838981882379F00E94861D88232A
:103A200019F081E080935C078981815089838981C5
:103A3000882399F710925B0780915C070F900FBE67
:103A40008A810F900F900F900F900F90CF91DF9180
:103A50000895DF93CF9300D0CDB7DEB70FB6F894BB
:103A60000F9280915707909158079A8389830F90FE
:103A70000FBE89819A810F900F90CF91DF910895A9
:103A8000DF93CF9300D00F92CDB7DEB7198280912C
:103A90005707909158079B838A838A819B810F9057
:103AA0000F900F90CF91DF910895DF93CF93CDB713
:103AB000DEB780915607CF91DF910895DF93CF93C2
:103AC00000D000D000D0CDB7DEB79C838B838B8134
:103AD0009C81009739F480915407909155079E83FB
:103AE0008D8304C08B819C819E838D838D819E817B
:103AF0009A83898389819A81499626960FB6F8948C
:103B0000DEBF0FBECDBFCF91DF910895DF93CF937E
:103B1000CDB7DEB729970FB6F894DEBF0FBECDBF85
:103B20001D8280916307882309F09AC0809157070E
:103B30009091580701969C838B838B819C819093F5
:103B40005807809357078B819C810097D9F4809107
:103B50009A0790919B079A83898380919C07909103
:103B60009D0790939B0780939A0789819A819093F0
:103B70009D0780939C0780915D078F5F80935D0711
:103B80000E94C42020915F07309160078B819C8147
:103B90008217930708F469C0E0919A07F0919B0798
:103BA0008081882339F48FEF9FEF90936007809393
:103BB0005F075BC0E0919A07F0919B070580F68153
:103BC000E02D8681978199878887E885F9858281AC
:103BD00093819F838E832B813C818E819F812817C7
:103BE000390738F48E819F819093600780935F0737
:103BF0003CC08885998502960E94CA06E885F985A9
:103C000084899589009729F0888599850C960E946A
:103C1000CA06E885F985968980915907891728F49D
:103C2000E885F985868980935907E885F98586892D
:103C3000282F30E0C901880F991F880F991F880F1E
:103C4000991F820F931FAC014C59584F8885998555
:103C50009C012E5F3F4FCA01B9010E941A069CCFFA
:103C600080915B078F5F80935B078D8129960FB6EC
:103C7000F894DEBF0FBECDBFCF91DF910895DF93E3
:103C8000CF9300D00F92CDB7DEB780916307882322
:103C900021F081E080935C0759C010925C0780910D
:103CA00059078B8303C08B8181508B838B81282F95
:103CB00030E0C901880F991F880F991F880F991F3D
:103CC000820F931FFC01EC59F84F8081882359F330
:103CD0008B81282F30E0C901880F991F880F991F09
:103CE000880F991F820F931F8C59984F9A8389834D
:103CF000E981FA810180F281E02D82819381E9815D
:103D0000FA8192838183E981FA81218132818981DB
:103D10009A8103962817390759F4E981FA810180BD
:103D2000F281E02D82819381E981FA8192838183FE
:103D3000E981FA810180F281E02D8681978190935B
:103D40005507809354078B81809359070F900F90EC
:103D50000F90CF91DF910895DF93CF9300D000D0E3
:103D6000CDB7DEB79A8389837C836B8380915407B8
:103D7000909155079C01245F3F4F89819A81B90139
:103D80000E945E068B819C8161E00E94C8240F9096
:103D90000F900F900F90CF91DF910895DF93CF9305
:103DA00000D000D000D0CDB7DEB79A8389837C8362
:103DB0006B835E834D83E0915407F09155078B81AF
:103DC0009C819068958784878091540790915507CE
:103DD0009C01245F3F4F89819A81B9010E941A0694
:103DE0008D819E8161E00E94C82426960FB6F894CA
:103DF000DEBF0FBECDBFCF91DF910895DF93CF938C
:103E000000D000D00F92CDB7DEB79D838C83EC81BC
:103E1000FD810580F681E02D868197819B838A83D1
:103E20008A819B810C960E94CA0680916307882331
:103E300061F58A819B8102960E94CA06EA81FB8114
:103E4000968980915907891728F4EA81FB81868930
:103E500080935907EA81FB818689282F30E0C901C8
:103E6000880F991F880F991F880F991F820F931F22
:103E7000AC014C59584F8A819B819C012E5F3F4F6A
:103E8000CA01B9010E941A060AC08A819B819C015D
:103E9000245F3F4F8EE997E0B9010E941A06EA813C
:103EA000FB819689E0915407F0915507868989171F
:103EB00030F481E0898381E080935C0701C019823E
:103EC00089810F900F900F900F900F90CF91DF91FD
:103ED0000895DF93CF9300D000D000D0CDB7DEB7E8
:103EE0009C838B837E836D838D819E819068EB8123
:103EF000FC8191838083EB81FC81868197819A8309
:103F000089838B819C810E94CA0689819A8102964D
:103F10000E94CA06E981FA8196898091590789171A
:103F200028F4E981FA81868980935907E981FA8129
:103F30008689282F30E0C901880F991F880F991FA3
:103F4000880F991F820F931FAC014C59584F8981DC
:103F50009A819C012E5F3F4FCA01B9010E941A0647
:103F6000E981FA819689E0915407F0915507868995
:103F7000891718F481E080935C0726960FB6F894B1
:103F8000DEBF0FBECDBFCF91DF910895DF93CF93FA
:103F900000D0CDB7DEB79A8389830FB6F8940F921D
:103FA00080915D07E981FA81808380915707909124
:103FB0005807E981FA81928381830F900FBE0F9099
:103FC0000F90CF91DF910895DF93CF9300D0CDB7BD
:103FD000DEB79A83898380915D07E981FA818083C6
:103FE0008091570790915807E981FA8192838183E4
:103FF0000F900F90CF91DF910895DF93CF93CDB7BE
:10400000DEB729970FB6F894DEBF0FBECDBF9F83F2
:104010008E83798768870FB6F8940F92809157073F
:10402000909158079C838B83EE81FF81218132819F
:104030008B819C81821B930B9A838983E885F98508
:10404000808191812FEF8F3F920711F41D8236C03E
:10405000EE81FF81908180915D07981761F0EE817C
:10406000FF81218132818B819C818217930718F017
:1040700081E08D8323C0E885F985208131818981A4
:104080009A8182179307A0F4E885F9852081318110
:1040900089819A81A901481B590BCA01E885F985D4
:1040A000918380838E819F810E94E41F1D8206C0C0
:1040B000E885F9851182108281E08D830F900FBE13
:1040C0008D8129960FB6F894DEBF0FBECDBFCF917C
:1040D000DF910895DF93CF93CDB7DEB781E0809372
:1040E0005C07CF91DF910895DF93CF9300D0CDB7D8
:1040F000DEB79A8389830E94BD200E94D508FBCF3A
:10410000DF93CF930F92CDB7DEB7198213C08981A9
:10411000282F30E0C901880F991F880F991F880F39
:10412000991F820F931F8C59984F0E94E005898137
:104130008F5F89838981843050F388E897E00E94FB
:10414000E00581E997E00E94E0058EE997E00E9492
:10415000E00587EA97E00E94E00588E897E0909301
:104160009B0780939A0781E997E090939D0780933E
:104170009C070F90CF91DF910895DF93CF93CDB738
:10418000DEB7CF91DF910895DF93CF9300D0CDB705
:10419000DEB7E0919A07F0919B078081882339F47C
:1041A0008FEF9FEF9093600780935F0713C0E091BC
:1041B0009A07F0919B070580F681E02D8681978113
:1041C0009A838983E981FA81828193819093600740
:1041D00080935F070F900F90CF91DF910895DF9349
:1041E000CF9300D0CDB7DEB780915407909155079B
:1041F0009A83898389819A810F900F90CF91DF9163
:104200000895DF93CF9300D0CDB7DEB7E091540788
:10421000F0915507848595859A838983A0915407E9
:10422000B0915507E0915407F09155078689282FE2
:1042300030E084E090E0821B930B1D969C938E935C
:104240001C9789819A810F900F90CF91DF910895EB
:10425000DF93CF93CDB7DEB727970FB6F894DEBFC5
:104260000FBECDBF8D837F836E830FB6F8940F9200
:10427000E0915407F091550781A192A1A3A1B4A1A7
:104280000097A105B10589F4E0915407F091550715
:1042900081E085A38E819F81009739F08E819F8177
:1042A00061E00E94C8240E94D5080F900FBE0FB68F
:1042B000F8940F92E0915407F091550781A192A1D3
:1042C000A3A1B4A189839A83AB83BC8389819A819A
:1042D000AB81BC810097A105B105D9F08D81882300
:1042E00049F0E0915407F091550711A212A213A2D0
:1042F00014A20FC0E0915407F091550789819A816B
:10430000AB81BC810197A109B10981A392A3A3A3A9
:10431000B4A3E0915407F091550715A20F900FBE7A
:1043200089819A81AB81BC81BC01CD0127960FB6F2
:10433000F894DEBF0FBECDBFCF91DF910895EF920D
:10434000FF920F931F93DF93CF93CDB7DEB72D97D7
:104350000FB6F894DEBF0FBECDBF6A837B838C831C
:104360009D832E833F83488759871B870A87FD8655
:10437000EC860FB6F8940F92E0915407F091550730
:1043800085A1823049F1E0915407F091550721A1B0
:1043900032A143A154A18A819B81AC81BD818095CA
:1043A0009095A095B09582239323A423B52381A350
:1043B00092A3A3A3B4A3E0915407F091550781E021
:1043C00085A38C859D85009739F08C859D8561E05E
:1043D0000E94C8240E94D5080F900FBE0FB6F89413
:1043E0000F928A859B85009771F0E0915407F091B8
:1043F000550781A192A1A3A1B4A1EA85FB85808381
:104400009183A283B383E0915407F091550785A16E
:10441000823011F019821AC0E0915407F0915507CB
:1044200021A132A143A154A18E819F81A885B98584
:1044300080959095A095B09582239323A423B523CE
:1044400081A392A3A3A3B4A381E08983E09154073D
:10445000F091550715A20F900FBE89812D960FB6CA
:10446000F894DEBF0FBECDBFCF91DF911F910F91AA
:10447000FF90EF9008950F931F93DF93CF93CDB7E5
:10448000DEB761970FB6F894DEBF0FBECDBF9E8337
:104490008D834F83588769877A872B871D870C8781
:1044A00081E08A838D819E819C838B830FB6F894F3
:1044B0000F928C859D85009761F0EB81FC8181A135
:1044C00092A1A3A1B4A1EC85FD8580839183A283F1
:1044D000B383EB81FC8185A18983EB81FC8182E040
:1044E00085A38B85282F30E0398B288B8889998983
:1044F0008230910559F1288939892330310534F406
:10450000888999898130910561F04AC02889398963
:104510002330310559F1888999898430910589F1D1
:104520003FC0EB81FC8121A132A143A154A18F8125
:104530009885A985BA85822B932BA42BB52BEB816B
:10454000FC8181A392A3A3A3B4A32AC0EB81FC8125
:1045500081A192A1A3A1B4A10196A11DB11DEB81DE
:10456000FC8181A392A3A3A3B4A31AC0EB81FC8115
:104570008F819885A985BA8581A392A3A3A3B4A3AB
:104580000FC08981823059F0EB81FC818F81988541
:10459000A985BA8581A392A3A3A3B4A301C01A825B
:1045A0008981813079F58B819C8102960E94CA06AF
:1045B000EB81FC81968980915907891728F4EB815A
:1045C000FC81868980935907EB81FC818689282F9D
:1045D00030E0C901880F991F880F991F880F991F14
:1045E000820F931FAC014C59584F8B819C819C01C9
:1045F0002E5F3F4FCA01B9010E941A06209154074D
:10460000309155070F900FBE8A8161960FB6F894CE
:10461000DEBF0FBECDBFCF91DF911F910F910895E7
:10462000EF92FF920F931F93DF93CF93CDB7DEB737
:1046300062970FB6F894DEBF0FBECDBF9F838E8307
:10464000488759876A877B872C871E870D87F88A5A
:10465000EF8681E08A838E819F819D838C8319827E
:104660008D859E85009761F0EC81FD8181A192A1ED
:10467000A3A1B4A1ED85FE8580839183A283B3833A
:10468000EC81FD8185A18B83EC81FD8182E085A396
:104690008C85282F30E03A8B298B89899A89823042
:1046A000910559F129893A892330310534F48989F2
:1046B0009A898130910561F04AC029893A8923306D
:1046C000310559F189899A898430910589F13FC072
:1046D000EC81FD8121A132A143A154A18885998556
:1046E000AA85BB85822B932BA42BB52BEC81FD8156
:1046F00081A392A3A3A3B4A32AC0EC81FD8181A1CD
:1047000092A1A3A1B4A10196A11DB11DEC81FD81CF
:1047100081A392A3A3A3B4A31AC0EC81FD818885D1
:104720009985AA85BB8581A392A3A3A3B4A30FC037
:104730008B81823059F0EC81FD8188859985AA852D
:10474000BB8581A392A3A3A3B4A301C01A828B81CA
:10475000813009F04FC080916307882361F58C8117
:104760009D8102960E94CA06EC81FD819689809106
:104770005907891728F4EC81FD81868980935907B0
:10478000EC81FD818689282F30E0C901880F991FAF
:10479000880F991F880F991F820F931FAC014C59E6
:1047A000584F8C819D819C012E5F3F4FCA01B901FA
:1047B0000E941A060AC08C819D819C01245F3F4F94
:1047C0008EE997E0B9010E941A06EC81FD81968975
:1047D000E0915407F09155078689891758F48F8521
:1047E0009889009721F0EF85F88981E0808381E046
:1047F00080935C078A8162960FB6F894DEBF0FBE85
:10480000CDBFCF91DF911F910F91FF90EF90089551
:10481000DF93CF93CDB7DEB728970FB6F894DEBFFE
:104820000FBECDBF9E838D8378876F838D819E81E0
:104830009C838B831982EB81FC8185A18A83EB8128
:10484000FC8182E085A3EB81FC8181A192A1A3A1DF
:10485000B4A10196A11DB11DEB81FC8181A392A39E
:10486000A3A3B4A38A81813009F04FC0809163076C
:10487000882361F58B819C8102960E94CA06EB8198
:10488000FC81968980915907891728F4EB81FC8176
:10489000868980935907EB81FC818689282F30E037
:1048A000C901880F991F880F991F880F991F820FC0
:1048B000931FAC014C59584F8B819C819C012E5FFA
:1048C0003F4FCA01B9010E941A060AC08B819C8120
:1048D0009C01245F3F4F8EE997E0B9010E941A06C0
:1048E000EB81FC819689E0915407F0915507868908
:1048F000891758F48F819885009721F0EF81F8850A
:1049000081E0808381E080935C0728960FB6F8945D
:10491000DEBF0FBECDBFCF91DF910895DF93CF9360
:10492000CDB7DEB727970FB6F894DEBF0FBECDBF69
:104930009D838C838C819D81009739F480915407ED
:10494000909155079F838E8304C08C819D819F83A6
:104950008E838E819F819B838A830FB6F8940F92FA
:10496000EA81FB8185A1823031F4EA81FB8115A2C5
:1049700081E0898301C019820F900FBE898127963B
:104980000FB6F894DEBF0FBECDBFCF91DF91089573
:10499000DF93CF93CDB7DEB727970FB6F894DEBF7E
:1049A0000FBECDBF9E838D836F83809157079091FB
:1049B00058079A83898380915407909155070296EE
:1049C0000E94CA068D819E812FEF8F3F920781F44E
:1049D0008F81882369F080915407909155079C013D
:1049E0002E5F3F4F87EA97E0B9010E941A0643C045
:1049F00029813A818D819E81820F931F9C838B83B5
:104A0000E0915407F09155078B819C8193838283B9
:104A10002B813C8189819A812817390770F4809114
:104A20009C0790919D0720915407309155072E5F68
:104A30003F4FB9010E945E061EC040919A075091F7
:104A40009B0780915407909155079C012E5F3F4F23
:104A5000CA01B9010E945E0620915F07309160078C
:104A60008B819C818217930730F48B819C8190937A
:104A7000600780935F0727960FB6F894DEBF0FBEDE
:104A8000CDBFCF91DF910895DF93CF93CDB7DEB740
:104A90008091B807813021F482E08093B8070FC07D
:104AA0008091B807882359F48091B007813039F498
:104AB000E091BE07F091BF0709951092B007CF9122
:104AC000DF910895DF93CF93CDB7DEB78091B8071C
:104AD0008823E9F48091B107813041F4E091BE0769
:104AE000F091BF0709951092B1071EC08091BA07D7
:104AF0009091BB070E94792DE091BA07F091BB0716
:104B00008081882389F483E08093B8070DC0809169
:104B1000B807833049F48091BA079091BB070E948F
:104B2000792D84E08093B807CF91DF910895DF93CA
:104B3000CF93CDB7DEB766970FB6F894DEBF0FBE42
:104B4000CDBF86EA8983CE0102969B8B8A8BEDEBE3
:104B5000F0E0FD8BEC8BF0E1FE8BEC89FD890080B1
:104B60008C899D8901969D8B8C8BEA89FB890082BB
:104B70008A899B8901969B8B8A8B9E8991509E8BFB
:104B8000EE89EE2351F7CE0102960E946C2A8983AA
:104B90008981843C21F481E08093B20702C01092A5
:104BA000B207898166960FB6F894DEBF0FBECDBFFF
:104BB000CF91DF910895DF93CF930F92CDB7DEB7FA
:104BC00086EA898389810F90CF91DF910895DF93E1
:104BD000CF93CDB7DEB72A970FB6F894DEBF0FBEDE
:104BE000CDBF8A837C836B835E834D8338872F831D
:104BF00086EA89838091B207882319F484EA89833D
:104C0000A7C08A81823018F085EA8983A1C08A8191
:104C1000282F30E0C901880F991F880F991F880F2E
:104C2000991F820F931FFC01E954F84F8081813056
:104C300019F48FE989838CC08B819C81009721F0C6
:104C40008D819E81009719F482EA898381C08A81CF
:104C5000282F30E0C901880F991F880F991F880FEE
:104C6000991F820F931FFC01E454F84F8F819885A0
:104C7000918380838A81282F30E0C901880F991F92
:104C8000880F991F880F991F820F931FFC01E6540C
:104C9000F84F8B819C81918380838A81282F30E01B
:104CA000C901880F991F880F991F880F991F820FBC
:104CB000931FFC01E254F84F8D819E819183808384
:104CC0008A81282F30E0C901880F991F880F991F0A
:104CD000880F991F820F931FFC01E754F84F108231
:104CE0008A81282F30E0C901880F991F880F991FEA
:104CF000880F991F820F931FFC01E954F84F81E040
:104D000080838A81282F30E0C901880F991F880F7E
:104D1000991F880F991F820F931FFC01E854F84FC9
:104D200081E080838A81282F30E03A87298789852E
:104D30009A85009731F029853A852130310541F077
:104D400005C08A810E940A2D898302C085EA898371
:104D500089812A960FB6F894DEBF0FBECDBFCF91E2
:104D6000DF910895DF93CF9300D00F92CDB7DEB7D8
:104D700086EA8B831A828091B207813009F05AC18A
:104D80001A8253C18A81282F30E0C901880F991FE8
:104D9000880F991F880F991F820F931FFC01E954F8
:104DA000F84F8081882319F48EE98B833BC18A8177
:104DB000282F30E0C901880F991F880F991F880F8D
:104DC000991F820F931FFC01E854F84F80818230B5
:104DD00019F08EE98B8326C18091B3078031C1F130
:104DE0008A81282F30E0C901880F991F880F991FE9
:104DF000880F991F820F931FFC01E454F84F208104
:104E000031818091B307882F90E0A90102C05695A7
:104E100047958A95E2F7CA01898389810E940A2D04
:104E20008B838091B307885F8093B3078A81282F93
:104E300030E0C901880F991F880F991F880F991FAB
:104E4000820F931FFC01E854F84F81E08083EAC091
:104E50008A81282F30E0C901880F991F880F991F78
:104E6000880F991F820F931FFC01E454F84F808133
:104E700091810097B9F58A81282F30E0C901880F08
:104E8000991F880F991F880F991F820F931FFC018C
:104E9000E754F84F80810E940A2D8B838A81282F46
:104EA00030E0C901880F991F880F991F880F991F3B
:104EB000820F931FFC01E854F84F10828A81282F3B
:104EC00030E0C901880F991F880F991F880F991F1B
:104ED000820F931FFC01E954F84F108281E0809308
:104EE000B007A0C08A81282F30E0C901880F991F20
:104EF000880F991F880F991F820F931FFC01E6549A
:104F0000F84F0190F081E02D80810E940A2D8B8363
:104F10008A81282F30E0C901880F991F880F991FB7
:104F2000880F991F820F931FFC01E454F84F808172
:104F30009181AC0141505040C901880F991F880FE1
:104F4000991F880F991F820F931FFC01E454F84F9B
:104F5000518340838A81482F50E08A81282F30E096
:104F6000C901880F991F880F991F880F991F820FF9
:104F7000931FFC01E754F84F60818A81282F30E0AD
:104F8000C901880F991F880F991F880F991F820FD9
:104F9000931FFC01E654F84F0190F081E02D8081D1
:104FA000262F280FCA01880F991F880F991F880F75
:104FB000991F840F951FFC01E754F84F20838A81C5
:104FC000282F30E0C901880F991F880F991F880F7B
:104FD000991F820F931FFC01E654F84F8081918145
:104FE000AC014F5F5F4FC901880F991F880F991F50
:104FF000880F991F820F931FFC01E654F84F5183CD
:1050000040838A81282F30E0C901880F991F880FBB
:10501000991F880F991F820F931FFC01E854F84FC6
:1050200081E080838A818F5F8A838A81823008F45D
:10503000A9CE02C084EA8B838B810F900F900F90D2
:10504000CF91DF910895DF93CF93CDB7DEB7289747
:105050000FB6F894DEBF0FBECDBF8A837C836B830F
:105060005E834D8338872F8386EA89838091B207D8
:10507000882319F484EA898390C08A81823018F0E9
:1050800085EA89838AC08A81282F30E0C901880F88
:10509000991F880F991F880F991F820F931FFC017A
:1050A000E954F84F8081813019F48FE9898375C004
:1050B0008D819E81009721F08B819C81009719F44E
:1050C00082EA89836AC08A81282F30E0C901880F6B
:1050D000991F880F991F880F991F820F931FFC013A
:1050E000E454F84F8F819885918380838A81282F9B
:1050F00030E0C901880F991F880F991F880F991FE9
:10510000820F931FFC01E654F84F8D819E8191839D
:1051100080838A81282F30E0C901880F991F880F6A
:10512000991F880F991F820F931FFC01E254F84FBB
:105130008B819C81918380838A81282F30E0C901F3
:10514000880F991F880F991F880F991F820F931F2F
:10515000FC01E754F84F10828A81282F30E0C90102
:10516000880F991F880F991F880F991F820F931F0F
:10517000FC01E954F84F81E080838A81282F30E0D8
:10518000C901880F991F880F991F880F991F820FD7
:10519000931FFC01E854F84F1082898128960FB6BE
:1051A000F894DEBF0FBECDBFCF91DF910895DF939E
:1051B000CF9300D0CDB7DEB786EA8A83198280917B
:1051C000B207813009F046C119823FC18981282F79
:1051D00030E0C901880F991F880F991F880F991F08
:1051E000820F931FFC01E954F84F8081882319F442
:1051F0008EE98A8327C18981282F30E0C901880F71
:10520000991F880F991F880F991F820F931FFC0108
:10521000E854F84F8081843019F08EE98A8312C1F6
:105220008091B607803109F43FC08981282F30E092
:10523000C901880F991F880F991F880F991F820F26
:10524000931FFC01E654F84F0190F081E02D80811E
:10525000282F30E08091B607882F90E002C0220FFF
:10526000331F8A95E2F78091B4079091B507822B9E
:10527000932B9093B5078093B4078091B607885F0E
:105280008093B6078981282F30E0C901880F991FC4
:10529000880F991F880F991F820F931FFC01E854F4
:1052A000F84F83E08083CEC08091B4079091B5071A
:1052B0000097E1F58981282F30E0C901880F991FF7
:1052C000880F991F880F991F820F931FFC01E654C6
:1052D000F84F0190F081E02D40818981282F30E046
:1052E000C901880F991F880F991F880F991F820F76
:1052F000931FFC01E754F84F80814817A1F489817E
:10530000282F30E0C901880F991F880F991F880F37
:10531000991F820F931FFC01E854F84F108281E01F
:105320008093B1078FC08FE98A838CC08981282F31
:1053300030E0C901880F991F880F991F880F991FA6
:10534000820F931FFC01E454F84F2081318180913A
:10535000B4079091B5072817390718F485EA8A83AE
:1053600071C08981482F50E08981282F30E0C90120
:10537000880F991F880F991F880F991F820F931FFD
:10538000FC01E754F84F60818981282F30E0C90182
:10539000880F991F880F991F880F991F820F931FDD
:1053A000FC01E654F84F0190F081E02D8081262F1A
:1053B000280FCA01880F991F880F991F880F991FFE
:1053C000840F951FFC01E754F84F20838981282F13
:1053D00030E0C901880F991F880F991F880F991F06
:1053E000820F931FFC01E654F84F80819181AC013C
:1053F0004F5F5F4FC901880F991F880F991F880F52
:10540000991F820F931FFC01E654F84F518340838C
:105410008091B4079091B50701979093B507809359
:10542000B4078981282F30E0C901880F991F880FA0
:10543000991F880F991F820F931FFC01E854F84FA2
:1054400083E0808389818F5F89838981823008F43A
:10545000BDCE02C084EA8A838A810F900F90CF91DB
:10546000DF910895DF93CF9300D0CDB7DEB78A8365
:1054700086EA89838091B207882319F484EA8983B4
:1054800025C08A81282F30E0C901880F991F880F15
:10549000991F880F991F820F931FFC01E954F84F41
:1054A0008081813019F083EA898310C08A81282F96
:1054B00030E0C901880F991F880F991F880F991F25
:1054C000820F931FFC01E954F84F108289810F90DD
:1054D0000F90CF91DF910895DF93CF93CDB7DEB7D3
:1054E00069970FB6F894DEBF0FBECDBF9D878C873E
:1054F00084EC8D831C8280E88B831A8219828C85D0
:105500009D85009721F08091C907882319F080ECD0
:105510008D8361C29E012A5F3F4F398B288B83EEBA
:1055200090E09B8B8A8B93E09C8BEA89FB890080BF
:105530002A893B892F5F3F4F3B8B2A8BE889F9896A
:105540000082288939892F5F3F4F398B288B3C890E
:1055500031503C8B8C89882341F7CE0106960E94FE
:105560009033FE013996FE8BED8B20EE30E0388FC4
:105570002F8B33E0398FEF89F88D00802F89388D9C
:105580002F5F3F4F388F2F8BED89FE8900822D8949
:105590003E892F5F3F4F3E8B2D8B398D3150398F98
:1055A000898D882341F7CE0109960E949033EC85BE
:1055B000FD8582818823B1F4ABE2B0E0EBE2F0E05C
:1055C0008081282F2D7FEC85FD858281882F90E0BA
:1055D000FC01E053FF4F80818270822B8C9380E12D
:1055E0008C831DC0EC85FD8582818130B1F4ABE2F6
:1055F000B0E0EBE2F0E08081282F2D7FEC85FD8587
:105600008281882F90E0FC01E053FF4F80818270FF
:10561000822B8C9388E08C8302C083EC8D83EC8595
:10562000FD8585818430B8F48B81282F297FEC8516
:10563000FD858581882F90E0FC01E852FF4F808135
:105640008670822B8B83AAE2B0E0EAE2F0E08081F0
:105650008B7F8C932AC0EC85FD858581873019F579
:105660008B81282F297FEC85FD858581882F90E00F
:10567000FC01E852FF4F80818670822B8B83AAE267
:10568000B0E0EAE2F0E08081282F2B7FEC85FD85F9
:105690008581882F90E0FC01E852FF4F8081847063
:1056A000822B8C9302C083EC8D83EC85FD858381F6
:1056B000882329F0EC85FD858381813081F48B81FD
:1056C000282F277FEC85FD858381882F90E0FC01C2
:1056D000EE52FF4F80818870822B8B8302C083EC57
:1056E0008D83EC85FD858481882351F0EC85FD85D3
:1056F0008481823029F0EC85FD858481833081F4BA
:105700008B81282F2F7CEC85FD858481882F90E06C
:10571000FC01EC52FF4F80818073822B8B8302C08F
:1057200083EC8D838C81882F90E0A0E0B0E0EC8545
:10573000FD852681378140855185BC01CD010E94C0
:105740000C3C9B01AC0180E094E2A4EFB0E0BC0112
:10575000CD010E943F3CDA01C90101979A838983F8
:10576000EC85FD8586819781A085B1858036E9E04D
:105770009E07E0E0AE07E0E0BE0708F1EC85FD859E
:1057800086819781A085B185813CF2E19F07F0E099
:10579000AF07F0E0BF0798F4A0E4B0E0E0E4F0E089
:1057A0008081282F207F89819A81892F99278F7066
:1057B000822B8C93E9E2F0E08981808323C0EC8521
:1057C000FD8586819781A085B185803825E2920785
:1057D00020E0A20720E0B20798F0EC85FD858681E5
:1057E0009781A085B185813432E493073FE0A30718
:1057F00030E0B30728F4E9E2F0E08981808302C059
:1058000083EC8D83EC85FD858181E82FF0E0FF87B7
:10581000EE872E853F852130310509F18E859F85E4
:105820008230910599F1EE85FF85309709F058C0D7
:10583000AAE2B0E0EAE2F0E08081282F277FEC8541
:10584000FD858181882F90E0FC01E353FF4F80812B
:105850008870822B8C9381E08093C90745C0AAE2AF
:10586000B0E0EAE2F0E08081282F2F7EEC85FD8514
:105870008181882F90E0FC01E353FF4F808180718C
:10588000822B8C9382E08093C9072EC0AAE2B0E0FD
:10589000EAE2F0E08081282F277FEC85FD85818179
:1058A000882F90E0FC01E353FF4F80818870822BAA
:1058B0008C93AAE2B0E0EAE2F0E08081282F2F7E0C
:1058C000EC85FD858181882F90E0FC01E353FF4F3B
:1058D00080818071822B8C9383E08093C90704C000
:1058E00083EC8D831092C907EC85FD858081882328
:1058F00081F41092CA07AAE2B0E0EAE2F0E0808107
:10590000982F9F71EC85FD858081807E892B8C93FB
:1059100058C0EC85FD858081813009F052C081E05E
:105920008093CA078091C907813021F08091C9070F
:105930008330A9F4EC85FD8582859385009741F03D
:10594000EC85FD85828593859093CC078093CB076A
:10595000AAE2B0E0EAE2F0E0808180648C9380917A
:10596000C907823021F08091C9078330A9F4EC8502
:10597000FD8584859585009741F0EC85FD858485BE
:1059800095859093CE078093CD07AAE2B0E0EAE236
:10599000F0E0808180688C93EC85FD858685978515
:1059A000009779F0EC85FD85868597859093D007E3
:1059B0008093CF07AAE2B0E0EAE2F0E08081806263
:1059C0008C938D81843C19F01092C90704C0E0E4E7
:1059D000F0E08B8180838D8169960FB6F894DEBFED
:1059E0000FBECDBFCF91DF910895DF93CF930F927C
:1059F000CDB7DEB784EC89838091C907882319F479
:105A000082EC898302C01092C90789810F90CF91DF
:105A1000DF910895DF93CF93CDB7DEB727970FB609
:105A2000F894DEBF0FBECDBF8B8384EC8A83EBE29C
:105A3000F0E08081882F90E0807490709D838C834B
:105A40008C819D8199232CF48C819D81CF969D839F
:105A50008C838C819D81082E892F000C881F990BC7
:105A6000000C881F991F89838091C907813021F01C
:105A70008091C907833089F5ECE2F0E08B81808367
:105A80008091CA07882359F51DC0EBE2F0E08081C0
:105A9000882F90E0807490709F838E838E819F8189
:105AA00099232CF48E819F81CF969F838E838E8144
:105AB0009F81082E892F000C881F990B000C881FCE
:105AC000991F89838981882301F3ABE2B0E0EBE27F
:105AD000F0E0808180648C9302C082EC8A838A81AA
